:100000000C947C040C9499040C9499040C94990419
:100010000C9499040C9499040C9499040C949904EC
:100020000C9499040C9499040C949F190C94DB186B
:100030000C94E0290C9499040C9499040C94990460
:100040000C9499040C9499040C9499040C949904BC
:100050000C9499040C946E290C9499040C949904B2
:100060000C9499040C9499040C9499040C9499049C
:100070000C9499040C9499040C9499040C9499048C
:100080000C9499040C9499040C9499040C9499047C
:100090000C9499040C9499040C9499040C9499046C
:1000A0000C9499040C9499040C9499049405980563
:1000B000A505B40564056A05700576057C0582050D
:1000C00088058D05D408F608FB08000905090A090A
:1000D0000F09140919091E092309C1052A092D0947
:1000E000300933093609C30539093E09DC09DC0941
:1000F000160A160A610A7D0A460CA60CBF0A9D0B59
:10010000AE0BAE0BCC0DCF0DD20DD50DD80DDB0D3A
:10011000DE0D37123C1246123A123F1244124212BE
:100120001E174517B3184517B3188D17B017B31816
:100130006C188018C71FC71FDA1FDA1FD01FDA1FFD
:10014000DA1FDA1FC71FC71FD51FDA1FDA1FD51F17
:1001500029002B002961D75C025100001E00140009
:1001600004001D001B08E2001F001A0016001B00FF
:1001700006082A0020000800070006001908E3000E
:10018000210015000900190001510100220017008B
:100190000A00050000000F5D2F002D0000002961FE
:1001A00000004C0030002D0200002E000000115D08
:1001B00023001C000B0011000000125D2400180039
:1001C0000D0010000151010025000C000E0036004A
:1001D000105D2C00260012000F00370001002800DF
:1001E00027001300330038000100E700350031001C
:1001F0003400D85C02510000290001000100010018
:10020000010000003A0001000100010001000E5D44
:100210003B00240021001E0027002A003C0025008E
:1002200022001F00270010503D0026002300200060
:1002300001000D5D3E000100010001000000C35CF3
:10024000AE00AB000000AC0000000C5DA800A900EF
:100250000000AA000000C25C3F00135D50000100D6
:1002600000000B5D40004B0051004E0001000100FA
:1002700041004A0052004D0001002C004200145D74
:100280004F000100010028004300010001000100AF
:1002900001000100440045000100010001000000D0
:1002A0000100010001000100010000000100010047
:1002B00001000100085D010001000100F2000100E1
:1002C000010010500100F000F1000100F400105096
:1002D00001000100F3000100F50001000100010030
:1002E0000100010000000100010001000000010008
:1002F00000000100010001000000010000000100F9
:1003000001000100155D0100000001000100010075
:1003100001000100A9000100010001000100AC0082
:10032000AA00010001000100165DAB00A800010059
:10033000010001000100010001000100005C01005A
:10034000AE000100010000000102E601014F0103BF
:10035000E6000102E60101500103E6000102E601A8
:10036000014F0103E6000102E60101500103E6002E
:100370000102E50101260103E501043130307C0171
:1003800002E50101270103E5000102E601012C015C
:1003900003E6000102E601012C0103E60001012F42
:1003A00001043130307C0101300000000000000009
:1003B00000000000000000000000000000007E0FB0
:1003C00000D4FFFFFFC7000000780000000000001D
:1003D00000002A2B280000000000000000000000A0
:1003E000000000000029000000002C1E3420212203
:1003F00024342627252E362D3738271E1F2021226C
:10040000232425263333362E37381F0405060708E4
:10041000090A0B0C0D0E0F101112131415161718D4
:10042000191A1B1C1D2F3130232D35040506070812
:10043000090A0B0C0D0E0F101112131415161718B4
:10044000191A1B1C1D2F3130354C0001010101010F
:10045000010101010202020202020202020303037D
:10046000030303030304040404040404050505054D
:10047000050606060606070707070708080808090D
:100480000909090A0A0A0B0B0B0C0C0C0D0D0D0EB9
:100490000E0E0F0F0F10101111111212131314144E
:1004A000151516161717181819191A1A1B1B1C1DC3
:1004B0001D1E1E1F2020212222232424252626271C
:1004C0002829292A2B2C2D2D2E2F3031323233344E
:1004D00035363738393A3B3C3D3E3F404142434454
:1004E00045464748494A4C4D4E4F50515354555636
:1004F00058595A5B5D5E5F616264656668696B6CE2
:100500006D6F7072737577787A7B7D7E808283855C
:1005100087888A8C8E8F91939596989A9C9EA0A29C
:10052000A3A5A7A9ABADAFB1B3B5B7BABCBEC0C2A6
:10053000C4C6C9CBCDCFD1D4D6D8DBDDDFE2E4E76A
:10054000E9EBEEF0F3F5F8FAFDFF0A000000000019
:100550000306B200080001000000A8000800020025
:100560000200A0001400030057494E5553420000FA
:1005700000000000000000008400040007002A00C2
:1005800044006500760069006300650049006E0064
:10059000740065007200660061006300650047003A
:1005A0005500490044007300000050007B003900F2
:1005B00044004200370046003100460044002D0050
:1005C00037004500370041002D0034003000300076
:1005D00038002D0039003300360042002D0036006F
:1005E0004200410036004300310039004100330031
:1005F0003000380063007D00000000001B03016331
:100600006F6E6669677572652E6572676F646F7865
:100610002D657A2E636F6D0005010902A101850227
:100620000901A100050919012905150025019505F4
:1006300075018102950175038101050109300931B8
:100640001581257F95027508810609381581257F5A
:10065000950175088106050C0A38021581257F95DC
:100660000175088106C0C005010980A10185031A32
:1006700081002A8300160100260300950175108170
:1006800000C0050C0901A10185041A01002A9C0281
:10069000160100269C02950175108100C005010914
:1006A00006A1018505050719E029E7150025019533
:1006B00008750181020507190029EF15002501952C
:1006C000F07501810205081901290595057501914B
:1006D00002950175039101C005010906A1010507F5
:1006E00019E029E71500250195087501810295019A
:1006F000750881010507190029FF150026FF0095DF
:1007000006750881000508190129059505750191EF
:1007100002950175039101C009025200030100A076
:10072000FA0904000001030101000921110100017F
:100730002240000705810308000A090401000103A3
:1007400000000009211101000122C00007058203F9
:1007500020000A0904020002FF00000007058303CD
:1007600040000507050403400005120110020000C7
:100770000008EDFE0713010001020301040330002D
:10078000000016034500720067006F0064006F00F0
:100790007800200045005A00000008035A0053006A
:1007A0004100000004030904050F3900021C100574
:1007B00000DF60DDD88945C74C9CD2659D9E648A68
:1007C0009F00000306B20045001810050038B60867
:1007D00034A909A0478BFDA0768815B665000142B3
:1007E0000000047F3F1F643214643214783C1E1EE4
:1007F000140A05FFAA7F55402223252628292A2CE2
:100800002D2F3032333536383A3B3D3E404243455A
:1008100047494A4C4E5051535557595A5C5E606295
:10082000646668696B6D6F71737577797B7D7F81A5
:10083000838587898A8C8E90929496989A9C9E9FA5
:10084000A1A3A5A7A8AAACAEAFB1B3B4B6B8B9BBC3
:10085000BCBEBFC1C2C3C5C6C7C9CACBCCCDCED032
:10086000D1D2D2D3D4D5D6D7D7D8D9D9DADADBDB1F
:10087000DBDCDCDCDCDCDDDDDDDDDCDCDCDCDCDBB6
:10088000DBDBDADAD9D9D8D7D7D6D5D4D3D2D2D1FF
:10089000D0CECDCCCBCAC9C7C6C5C3C2C1BFBEBCF2
:1008A000BBB9B8B6B4B3B1AFAEACAAA8A7A5A3A163
:1008B0009F9E9C9A98969492908E8C8A8987858325
:1008C000817F7D7B79777573716F6D6B6968666405
:1008D00062605E5C5A5957555351504E4C4A4947D5
:1008E000454342403E3D3B3A3836353332302F2D7A
:1008F0002C2A29282625232211241FBECFEFDAE037
:10090000DEBFCDBF12E0A0E0B1E0E4EFF3E602C04D
:1009100005900D92A233B107D9F723E0A2E3B2E02C
:1009200001C01D92A23CB207E1F70E94AD1B0C94DE
:10093000F8310C9400004F925F926F927F929F92D9
:10094000AF92BF92CF92DF92EF92FF920F931F93DD
:10095000CF93DF93CDB7DEB72D970FB6F894DEBFF8
:100960000FBECDBFFC010081F18083819481892B72
:1009700039F01FEFF11206C091E00F3F19F403C0E8
:1009800091E001C090E090FF02C00C94C60C6F0192
:1009900085E0DE01199601900D928A95E1F7F60146
:1009A000228189859A85222349F00E94872B182F5E
:1009B000682F89859A850E94012C03C00E94D42B40
:1009C000182F24E5129FF001112436E0F39EE00D6C
:1009D000F11D1124E00FF11DEE0FFF1FE05BFE4F34
:1009E000059114918091C902882319F08091CA025F
:1009F00002C080E090E080FF15C01982F60182817C
:100A0000882311F081E101C082E18A83F6018081AF
:100A10008B8381818C838EEF8D8365E0CE0101967F
:100A20000E942428F60182810930FDE51F0709F0A4
:100A300040C0882309F4ABC090917E0281E0890F09
:100A40008770987F853020F4892B80937E0202C0C6
:100A500090937E0280917E0287702FEF829FC0016B
:100A60001124959587959595879599279093890059
:100A70008093880090938B0080938A0090938D00E0
:100A800080938C0040917E0250917F0260918002A1
:100A9000709181028FE090E00E94682D6091C50204
:100AA0007091C6028091C7029091C8020E941D12E7
:100AB0006EC0F801EB50FD45EC30F10508F067C061
:100AC000EA5AFF4F0C94C02D882309F460C08DE9C9
:100AD00093E027C0882309F45AC083E993E021C03A
:100AE000882309F454C089E893E01BC0882309F4E3
:100AF0004EC080E793E015C0882309F448C086E61D
:100B000093E00FC0882309F442C08CE593E009C04C
:100B10008823E9F182E593E004C08823C1F188E4E9
:100B200093E00E94901133C0882309F42FC729C095
:100B3000882309F42BC70E94B60E81E00E94B30EF1
:100B400021E04FEF6FEF86E90CC0882309F41EC740
:100B50000E94B60E81E00E94B30E21E04FEF6FEFCE
:100B600080ED0E94FB2612C7882309F40FC70E945C
:100B7000B60E81E00E94B30E21E04FEF6FEF8FE7DA
:100B8000F0CF81E001C088E10E94B30EFFC6F601FC
:100B90008281882319F1033E3CE51307C1F050F42C
:100BA000013E9CE5190781F0023EECE51E07B1F419
:100BB00081E010C0043EFCE51F0759F0053E2CE51E
:100BC000120761F484E006C010927A0205C082E048
:100BD00001C083E080937A020E94900F17FF6DC0DE
:100BE000F6018281882309F468C08091B303809361
:100BF00032021092B30380917A02813071F048F092
:100C00008230A1F08430C1F486EE0E94C12388E1D5
:100C100011C082EE0E9434230FC088E193E00E944D
:100C2000071288E193E00E94F11106C082EE0E9453
:100C3000342387E50E94C1238FE39CE90197F1F7F4
:100C400000C000005801E894B7F83CE0E32EF12C16
:100C5000C5010E2C02C0969587950A94E2F7282FBD
:100C60002F7041F0822F90E02A3010F44D9604C08E
:100C7000069702C087E290E00E94C12394E0E91A3F
:100C8000F108ECEFEE16EFEFFE0611F780917A0215
:100C9000813039F040F0823031F0843051F488E214
:100CA00006C08CE204C082EE0E94CD2202C00E94E7
:100CB000C123809132028093B303F601928199237C
:100CC00009F4D4C00831FCE51F0731F1A0F40E315E
:100CD000110508F4CBC00832110508F4AEC0073185
:100CE0003CE5130709F0C2C02091070130910801CB
:100CF0002B5F3F4F17C00A318CE5180709F490C0ED
:100D0000B0F00B31FCE51F0709F48EC00C312CE567
:100D1000120709F48DC0AAC0209107013091080183
:100D2000255031093093080120930701A7C0809115
:100D300008018F93809107018F9383E291E09F9345
:100D40008F931F9288E08F93CE0101967C019F9331
:100D50008F930E94002F0FB6F894DEBF0FBECDBF59
:100D60002AE0B22EF7018081882309F482C0813005
:100D700009F050C08181813059F43701F2E06F0EE3
:100D8000711CF701F2808F2D0E9434238F2D14C027
:100D9000823051F43701F2E06F0E711CF70182814D
:100DA0000E943423730138C0833049F43701F2E0E4
:100DB0006F0E711CF70182810E94CD22F3CF843027
:100DC00021F0FFEFEF1AFF0A27C0F7012281C701C8
:100DD00002967C0180E090E030E0205331092A3017
:100DE000310570F4B89EA001B99E500D1124C901BF
:100DF000840F951FEFEFEE1AFE0AF7012081ECCF6A
:100E0000009751F0EFE9FFE03197F1F700C00000E3
:100E10000197F6CF0E944411FFEFEF1AFF0AA2CF0D
:100E200080910601811104C081E08093060126C0F3
:100E3000109206010E9461261CC00E9461268091CA
:100E40000601882309F43DC18091B303811139C1A2
:100E50000E94BE299093360280933502109334028B
:100E60000093330282E00E94522C90C50E946126BA
:100E700028C1F6019281992309F479C110923702B1
:100E80000230FCE51F0708F45CC106312CE51207AF
:100E900038F098012A5F3C452730310508F051C1F0
:100EA0000E94662A90939102809390020F303CE555
:100EB000130709F4CFC008F042C008309CE51907B9
:100EC00009F4A8C0F0F40430FCE51F0709F490C051
:100ED00068F402303CE5130709F486C003301C4572
:100EE00009F0DFC0809190028260D9C006309CE595
:100EF000190709F487C008F089C0809190028860C2
:100F0000CEC00B30FCE51F0709F495C068F409302A
:100F10003CE5130709F482C00A301C4509F0C1C042
:100F200080919002886080C00D309CE5190709F41B
:100F300086C008F087C0809190028D7FB0C00A3FC4
:100F4000FCE51F0709F457C050F502313CE51307D3
:100F500009F488C068F400319CE5190709F47EC0E3
:100F600001311C4509F09DC0809190028F7B97C094
:100F70000431FCE51F0709F487C008F479C0053186
:100F80001C4509F08EC08091900282FB222720F937
:100F900091E0922790FB82F990FB83F980C00D3F8E
:100FA0008CE5180709F452C058F40B3FECE51E0716
:100FB00029F10C3F1C4509F074C08091910260C07A
:100FC0000F3F2CE5120709F458C080F101151D45AB
:100FD00009F067C080919102982F909591708E7F53
:100FE000892B90FB81F94DC080919002816057C0A0
:100FF0008091900219C0809191021BC08091910252
:1010000082603FC080919002806149C080919002CF
:10101000806245C080919002806441C00E94B822E5
:101020008091900280683BC0846039C080919102B9
:101030008260816026C0809190028E7F30C0809156
:10104000900219C080919002877F29C080919102FF
:101050008D7F17C0809190028F7E21C08091900279
:101060008F7D1DC00E94B822809190028F7717C09B
:1010700080919002877F8B7F12C0809191028D7F3B
:101080008E7F809391020DC00E94B82280919002C1
:1010900087FB222720F991E0922790FB87F9809324
:1010A0009002609190021091910284E090E00E9481
:1010B000562D612F81E290E00E94562D0E94B822A9
:1010C00065C4033FFCE51F0739F426E241EE60EEFC
:1010D000C6010E9497275AC4043F2CE51207C0F4AA
:1010E000083D3CE5130721F427E245EE65EEF0CF1D
:1010F000093D8CE5180719F428E241E0F7CF073DD8
:101100009CE5190709F0B5CE26E241EE61EEE0CF8D
:10111000053FECE51E0721F426E241EE62EED8CF52
:10112000053FFCE51F0720F427E245EE64EED0CF33
:10113000063F2CE5120709F09CCE27E245EE66EE4D
:10114000C7CF8091B30306313CE5130709F58A7ACE
:1011500091E009F490E090933802882311F065E360
:1011600001C069E289E593E00E94312A0EC0063190
:101170001C4509F0DDC080913802882309F404C4BD
:1011800065E389E593E00E94092A0E94412BFEC392
:101190008272F801E25CFC45E431F10508F070C0B0
:1011A000EE59FF4F0C94C02D8091430280FF1BC06D
:1011B0008E7F80934302609143027091440280913C
:1011C0004502909146020E94440E1092AB029FEF9E
:1011D000E0E7F2E09150E040F040E1F700C00000AD
:1011E0000E943613D3C30E94B60ED0C34EEB5EE00E
:1011F00067EC7EE02CC047EC5EE06EEB7EE027C043
:101200004CE75DE065E87DE022C045E85DE06CE725
:101210007DE01DC044E65DE060E77DE018C040E78A
:101220005DE064E67DE013C04CE45DE068E57DE0F0
:101230000EC048E55DE06CE47DE009C046E55EE097
:1012400067E67EE004C047E65EE066E57EE00E9479
:10125000A2269CC365E082E00EC068E086E00BC079
:101260006EE089E008C064E18FE005C067E185E1D8
:1012700002C062E289E10E94912688C383E284CCA5
:10128000992309F455C00E3D2CE5120709F446C018
:1012900008303DE5130709F444C001151C4509F069
:1012A00047C00E94B8229FEFE4E3FCE09150E04089
:1012B000F040E1F700C00000F89481E08093E00086
:1012C00080E28093D8001092C9008FE19EE40197DC
:1012D000F1F700C000001DBA109268001CBC10BEDF
:1012E0001FBA10927A0010926E0010926F00109246
:1012F0007100109272001092C9001092BC0014B8D4
:1013000017B81AB81DB810BA1092BC0015B818B8A2
:101310001BB81EB811BA0C94003F38C30E94772A3C
:1013200035C39091CB0281E089278093CB022EC3F5
:10133000F60100811181992349F0C8010E94872B91
:10134000F82E682FC8010E94012C04C0C8010E9419
:10135000D42BF82EB8018F2D0E94960F8C01B82E39
:10136000F601E580E2949FE0E922F280F11010920C
:10137000B2038091B003877079F0FF2069F080E2BA
:10138000800F883048F082E00E94522C8091B00398
:101390008770AA24A3948111A12C912E92948FE09E
:1013A0009822892D90E08C30910508F0CFC2FC0185
:1013B000EA58FF4F0C94C02D812F807F1F70882327
:1013C00011F01295107FFF20B9F0112309F448C2E3
:1013D00080E2800F883010F0B11006C08091B30316
:1013E000182B1093B30305C08091B203182B1093F0
:1013F000B2030E94412B34C2802F0E94CD221123C0
:1014000009F4A4C2005E1095083010F0B11006C0B7
:101410008091B30318231093B30305C08091B203E6
:1014200018231093B2030E94412B90C2812F807F1A
:101430001F70803211F01295107FBB2021F0F1E077
:10144000BF16E1F028C0FF2081F08091B403EE20A8
:1014500051F001E0E01207C0182B181709F476C20A
:101460001093B40373C2812B10C0EE2021F021E051
:10147000E21609F46BC20E943B2B1FC0FF2041F013
:1014800031E03E1508F462C2812F0E9419205EC22D
:10149000E1105CC212C0FF2019F0EE20A9F3E0C1F8
:1014A000EE2059F0093309F0EDC18FEF97EEE3E03C
:1014B00081509040E040E1F7E3C1812F0E940E206F
:1014C00045C2812F86958695837019F0813059F039
:1014D0003DC2FF2019F0C801937002C080E090E087
:1014E0000E943F2639C2FF2019F0C801937002C044
:1014F00080E090E00E9429262FC2FF20F9F0053FEE
:1015000051F0063F71F0043FA9F4809139029091A7
:101510003A0281600BC08091390290913A02826058
:1015200005C08091390290913A02846090933A020A
:1015300080933902802F0E9406291EC0053F51F07A
:10154000063F71F0043FA9F48091390290913A026C
:101550008E7F0BC08091390290913A028D7F05C039
:101560008091390290913A028B7F90933A02809356
:101570003902802F0E943C280E94CA29EDC1812F88
:10158000837009F069C0F110E5C1902F929596958E
:101590009770990F990F802F8F70482E512C612CC6
:1015A000712C092E04C0440C551C661C771C0A942F
:1015B000D2F704FF12C04FE050E060E070E004C0DA
:1015C000440F551F661F771F9A95D2F7DB01CA019A
:1015D00080959095A095B09503C080E090E0DC01E7
:1015E00016951695412F4370423019F1C8F40091B9
:1015F000B5031091B6032091B7033091B803413081
:1016000059F084299529A629B729BC01CD01602369
:101610007123822393230AC0402A512A622A732A03
:10162000BC01CD0164297529862997290E94602073
:1016300091C184299529A629B7290091B503109154
:10164000B6032091B7033091B803BC01CD016027E8
:10165000712782279327EACFFF2019F0812F81700D
:1016600001C08695882309F475C1902F92959695AF
:101670009770990F990F802F8F70482E512C612CE5
:10168000712C092E04C0440C551C661C771C0A944E
:10169000D2F704FF12C04FE050E060E070E004C0F9
:1016A000440F551F661F771F9A95D2F7DB01CA01B9
:1016B00080959095A095B09503C080E090E0DC0106
:1016C00016951695412F43704230D9F068F5009178
:1016D000C5021091C6022091C7023091C802413064
:1016E00059F084299529A629B729BC01CD01602389
:1016F0007123822393231EC0402A512A622A732A0F
:1017000013C084299529A629B7290091C5021091F3
:10171000C6022091C7023091C802BC01CD016027EA
:1017200071278227932706C0BC01CD016429752942
:10173000862997290E9423200DC11F70FF2039F0B0
:10174000812F0E946B2C802F0E94192003C1802FB3
:101750000E940E20812F0E942D2CFCC0802FF2EFC2
:10176000BF1609F43EC0FB1538F020EFB21661F049
:1017700031EFB31689F16FC093EFB916C9F1E4EFF9
:10178000BE1609F44CC067C0FF2009F1E110DEC0AD
:101790001F7181E090E0A0E0B0E0AC01BD0104C0A9
:1017A000440F551F661F771F1A95D2F78091C50207
:1017B0009091C602A091C702B091C8028A019B0114
:1017C000082719272A273B27C901B80125C021E08E
:1017D0002E1508F4BBC0DCCFFF2029F0812F8F71BC
:1017E0002CC0FF20D9F3812F8F710E942D2CAEC009
:1017F000FF2079F01F7181E090E0A0E0B0E0BC0133
:10180000CD0104C0660F771F881F991F1A95D2F764
:1018100003C060E070E0CB010E94232097C0FF204E
:1018200079F01F71812F0E946B2C38E0139FC0014B
:10183000112483608093B003812F0E946B2C86C09B
:1018400081E00E94522C81E08E1508F07FC082E07A
:101850000E94522C7BC0FF2039F0EE2009F4BECF4D
:10186000802F0E94342372C0EE2009F4BCCF89334C
:1018700049F49FEFE7EEF3E09150E040F040E1F7EC
:1018800000C00000802F0E94CD2260C012EFB11670
:10189000E1F01B1538F020EFB21669F031EFB31606
:1018A00011F12BC084EFB816C9F0B81660F095EFAF
:1018B000B91671F022C0FF2009F44EC09091CD02FC
:1018C00081E0892708C081E0F826F092CD0244C06B
:1018D000F11042C081E08093CD023EC0F1103CC0C7
:1018E0001092CD0239C0FF2029F08091CC028823CC
:1018F00029F329C0EE2011F32FC08091CC02EE20F5
:10190000C1F0882341F09091CD0281E08927809336
:10191000CD021092CC02802FFF2019F00E943423B8
:101920001BC00E94CD2286E0F60111928A95E9F74C
:1019300013C0882389F0F1100FC09091CD0281E08F
:1019400089278093CD021092CC0206C088EF890DC2
:10195000843010F40E945526AA20C1F08091B00373
:1019600080FD14C0F60112828595859585950E94AB
:101970006B2CC6010E949B048091B00385958595D0
:1019800085950E942D2C02C069E2FBCB2D960FB6E7
:10199000F894DEBF0FBECDBFDF91CF911F910F91A5
:1019A000FF90EF90DF90CF90BF90AF909F907F908F
:1019B0006F905F904F9008959091900292FF0DC0AC
:1019C000282F2871283019F4877F846006C0282FBB
:1019D0002471243011F48B7F886093FF0DC0282F71
:1019E0002871283119F4877E846106C0282F24715C
:1019F000243111F48B7E88612091910220FF0DC06B
:101A0000382F3871383019F4877F816006C0382F3D
:101A10003171313011F48E7F886021FF0DC0282F85
:101A20002871283119F4877E816106C0282F217121
:101A3000213111F48E7E886194FD877E08959C018A
:101A40003A9521153F4138F5DC01AA27B270AC0167
:101A5000442754709C012227387094FF0FC090FFD8
:101A600002C080E101C080E0AB2B09F08062452B11
:101A700009F08064232B69F080680BC0892F817086
:101A8000AB2B09F08260452B09F08460232B09F011
:101A90008860FB0109940895E3E4F2E043812CE0BF
:101AA000421B08F440E021E0628181810C94FB2616
:101AB000E3E4F2E043812CE0420F08F44FEF21E031
:101AC000628181810C94FB26E3E4F2E062812FEFD6
:101AD000621B08F460E021E0438181810C94FB26C5
:101AE000E3E4F2E062812FEF620F08F46FEF21E090
:101AF000438181810C94FB26E3E4F2E0818121E0C3
:101B0000438162818C500C94FB26E3E4F2E08181F6
:101B100021E043816281845F0C94FB26CF93E82F00
:101B2000873080F580910A0190910B01892B09F093
:101B300047C0CE2F64E670E080E40E94922C909320
:101B40000B0180930A01892BD1F464E670E082E1F5
:101B50000E94E92C90930B0180930A01892B79F460
:101B600081E090E001C0880FCA95EAF764E670E072
:101B700080950E94E92C90930B0180930A01CF91EC
:101B80000C943E2D90E0FC013797E730F105C0F44E
:101B9000EE57FF4F0C94C02D209A289811C0219A1F
:101BA00029980EC0229A2A980BC0239A2B9808C015
:101BB000529A5A9805C0539A5B9802C03E9A46982A
:101BC000CF910895CF93873008F03FC080910A01EC
:101BD00090910B01892B09F041C064E670E080E42C
:101BE0000E94922C90930B0180930A01892B11F093
:101BF000C0E027C064E670E083E10E94E92C909386
:101C00000B0180930A01892B99F764E670E081E467
:101C10000E94922C90930B0180930A01892B41F72B
:101C200084E690E00E94192D97FF05C090930B0168
:101C300080930A01DDCFC82FC09510920B0110923E
:101C40000A010E943E2D8C2F0AC09FB18FB1807F68
:101C5000869586959370892B809501C080E0CF9101
:101C6000089580914302282F269530E021153105F3
:101C700019F48170826005C02532310524F081702D
:101C80008864809343020895CF92DF92EF92FF928F
:101C90006B017C010E94310EB701A60188E090E043
:101CA000FF90EF90DF90CF900C94682D80914702C9
:101CB000882319F08150809347026091430270910C
:101CC000440280914502909146020C94440E80910A
:101CD0004702833018F48F5F80934702609143027C
:101CE0007091440280914502909146020C94440EFA
:101CF0009091430290FF36C09170811102C09260B2
:101D000006C0853210F0986402C0880F982B90931B
:101D10004302662351F06091430270914402809126
:101D20004502909146020E94440E609143026695DE
:101D300070E04BE050E086E191E00E94F32E892BA9
:101D400019F01092AB0202C00E940B2881E0809330
:101D5000A70220E040914602609145028091440232
:101D60000C94FB26089561E00C94780EE3E4F2E015
:101D700080818160808386950C94B30E80914302AC
:101D80008695815009F484E261E00C94780E80918C
:101D9000430286958F5F853208F081E061E00C9404
:101DA000780EE3E4F2E083E0808311828FEF828398
:101DB0008383148260817181828193810C94440EAB
:101DC000BF92CF92DF92EF92FF920F931F93CF9328
:101DD000DF93E82EF62EE901E42FF0E0611106C052
:101DE000E65BFB4F8491B82EE82F71C0262F30E0C0
:101DF000E65BFB4FE491FE2FCE2ED12C46E0849F74
:101E0000C00111240FEF10E0B8010E94982D4BEA99
:101E10004603C001479F900D11248E0D911D8E0D1C
:101E2000911D982F990F890FD801A21BB30BAC9D60
:101E3000A001AD9D500DBC9D500D1124B52EF89EF6
:101E4000D0011124AB2FBB277801EA1AFB0AEC9CC6
:101E5000D001ED9CB00DFC9CB00D11247801E81A66
:101E6000F108E29EC001E39E900DF29E900D1124B8
:101E7000892F9927081B190B0C9D90010D9D300D82
:101E80001C9D300D1124832F6230710591F048F4B0
:101E900061157105E1F061307105B9F48E2FEB2FFA
:101EA00016C06430710569F040F06630710579F054
:101EB0000CC08E2FE52FB32E0AC0E52FBF2E8B2F1F
:101EC00006C0852FBE2EE32F02C0852FBB2EE983CF
:101ED0008883BA821B82DF91CF911F910F91FF906F
:101EE000EF90DF90CF90BF900895CF93DF9300D015
:101EF00000D0CDB7DEB79091430290FF0AC09E019B
:101F00002F5F3F4F0E94E00E4B8169818A810E94C2
:101F1000A8260F900F900F900F90DF91CF9108950A
:101F200060917A028CE090E00C94562DCF93DF9371
:101F300024E5829FC0011124FC0146E0749FE00D5E
:101F4000F11D1124E60FF11DEE0FFF1FE05BFE4FA8
:101F5000C591D491CE01C238D10569F1B0F4C13335
:101F6000D10509F475C048F4C932D10509F469C036
:101F7000CA32D10509F473C085C0C533D10509F44F
:101F800059C0C933D105B9F07DC0C33ED10571F147
:101F900038F4C03ED105B1F0C23ED10511F172C096
:101FA000C63ED105B9F1C73ED105C9F1C43ED10540
:101FB00009F068C024C02091900220FD5DC021FD81
:101FC0005BC060C02091900220FD50C02091910222
:101FD00020FF57C18091900284FD51C183EE90E0B3
:101FE00050C12091900222FF4CC1F4CF8091900209
:101FF00082FD3FC08091910280FD3EC0EBCF2091D9
:10200000910221FF3EC18091900284FD38C187EE8C
:1020100090E037C12091900223FF33C1F4CF80912B
:10202000900283FD2CC08091910281FFECCF84EE61
:1020300090E027C12091900225FF23C189E290E022
:1020400020C12091900225FF1CC185E390E019C1B9
:102050002091900226FF15C18AE290E012C12091E2
:10206000900226FF0EC181E390E00BC189E390E06E
:1020700008C182EE90E005C180EE90E002C186EEDC
:1020800090E0FFC0C11552E5D50708F075C0C11535
:1020900021E5D20728F09C2F8827816F906AF1C034
:1020A000C83ED10570F5C03ED10508F0EAC0C83A77
:1020B000D105B8F4C53AD10550F08C2F855AC82FF8
:1020C000D0E0CC5CDE4F888190E09064DAC0C13013
:1020D000D10509F4D6C008F4D2C0249708F4CFC0C3
:1020E000D0C0CF3BD10508F0CAC08C2F885AC82F6A
:1020F000D0E0CC0FDD1FC95CDE4F888199819464EC
:10210000C0C0C11540E2D40760F4C11551E0D50745
:1021100008F0B7C0C03FD10508F4B1C0CE0190654A
:10212000B0C0C11580E4D80708F4A9C0C11520E5E6
:10213000D20720F4CE019F70906AA3C0CE01F4E0D4
:1021400096958795FA95E1F7282F23703C2F3370E9
:1021500081E090E002C0880F991F3A95E2F79C68F1
:10216000922B2C2F2F702695269550E2259F9001BB
:102170001124822B932B85C0C11546E5D40708F0A6
:102180003FC0C11555E5D50748F08C2F0E94DC0CE7
:102190008F7190E0982F8827906273C0C11584E5F5
:1021A000D80728F09C2F8827846F906A6AC09E0108
:1021B000237033279C2F96959695C115D34580F4AF
:1021C00041E050E002C0440F551F2A95E2F780E23B
:1021D000989F90011124CA01822B932B9C6851C0B7
:1021E00041E050E002C0440F551F2A95E2F780E21B
:1021F000989F90011124CA01822B932B9A6841C0A9
:10220000C1155AE5D50778F5C11589E5D80710F14C
:102210008C2F8F700E94DC0C9E0194E036952795E0
:102220009A95E1F72F7030E0322F22273069A9010B
:10223000482B0EC090568115904208F58D2F8F7156
:102240000E94DC0C9E01332730628F71A901582B4C
:10225000CA0117C0C11528E5D20788F09C2F88272E
:10226000806F906A0EC0C1154BE5D40740F0CE01D7
:10227000C1155CE5D507F0F69927906602C080E0AD
:1022800090E0DF91CF910895FF920F931F93CF932A
:10229000DF93E82FF0E0E653FC4FF490C82FC6958B
:1022A000C695C695D0E0FE01E654FC4F04918770B8
:1022B00010E0082E02C0159507950A94E2F7017008
:1022C0001127FE01E655FC4FC491D0E002C0D59520
:1022D000C7958A95E2F7C170DD270115110519F040
:1022E00081EE0E943423209719F086EE0E94342359
:1022F0008F2D0E94C123CD2B19F086EE0E94CD2296
:10230000012B41F081EEDF91CF911F910F91FF9052
:102310000C94CD22DF91CF911F910F91FF900895E2
:10232000FF920F931F93CF93DF938C018AE0F82ED7
:10233000F8018491882309F44EC0813009F044C02B
:10234000E8012196FE018491813041F42196FE013D
:102350001491812F0E943423812F0FC0823039F4D1
:10236000E8012296FE0184910E94342330C083301C
:1023700039F4E8012296FE0184910E94CD2227C003
:10238000843029F5E8012296FE01249180E090E056
:1023900030E0205331092A30310560F4F89EA00165
:1023A000F99E500D1124C901840F951F2196FE013D
:1023B0002491EECF009759F0EFE9FFE03197F1F764
:1023C00000C000000197F6CF0E944411E8018E0181
:1023D0000F5F1F4FADCFDF91CF911F910F91FF90F6
:1023E0000895CF93DF93EC010E94CD22CE01805E51
:1023F0009109089710F0209719F46EE070E202C07E
:1024000069EF7FE1CE01DF91CF910C941F0DCF9347
:10241000DF93EC01805E9109089710F0209719F482
:1024200069E170E202C064E070E2CE010E941F0D1B
:102430008C2FDF91CF910C943423CF92DF92EF92C7
:10244000FF926B017C010E94EB2A56985E982598BA
:102450002D9826982E9827982F9890E0FC01319778
:10246000E730F105A8F4E757FF4F0C94C02D259AEB
:102470002D9A0EC0259A2D9A269A2E9A09C0259A31
:102480002D9A04C0259A2D9A269A2E9A279A2F9A29
:10249000C701B601FF90EF90DF90CF90089580E2E2
:1024A00090E090930B0180930A0180914102811189
:1024B0000EC00E948C2C81E0809341022FEF83EDAF
:1024C00090E3215080409040E1F700C0000064E6B6
:1024D00070E080E40E94922C90930B0180930A019B
:1024E000892B09F04EC064E670E080E00E94E92C80
:1024F00090930B0180930A01892B09F042C064E696
:1025000070E080E00E94E92C90930B0180930A0117
:10251000892BB9F564E670E08FE30E94E92C909373
:102520000B0180930A01892B61F50E943E2D64E620
:1025300070E080E40E94922C90930B0180930A013A
:10254000892BF9F464E670E08CE00E94E92C90930A
:102550000B0180930A01892BA1F464E670E080E00E
:102560000E94E92C90930B0180930A01892B49F476
:1025700064E670E08FE30E94E92C90930B01809356
:102580000A010E943E2D80910A010895CF93DF93A6
:1025900056985E9825982D9826982E9827982F98CB
:1025A000C8E8D0E08FEF90E099838883AAE8B0E094
:1025B00011969C938E93ECE8F0E091838083259AAA
:1025C0002D9A2FEF80E792E0215080409040E1F774
:1025D00000C00000269A2E9A2FEF80E792E021504B
:1025E00080409040E1F700C00000279A2F9A2FEF1B
:1025F00080E792E0215080409040E1F700C0000069
:1026000025982D982FEF80E792E021508040904050
:10261000E1F700C0000026982E982FEF80E792E0A7
:10262000215080409040E1F700C0000027982F988B
:1026300080917E0287702FEF829FC00111249595B3
:1026400087959595879599279983888311969C936B
:102650008E939183808356985E9825982D9826981E
:102660002E9827982F98DF91CF910895EF92FF929F
:102670000F931F93CF93DF938091430280FF08C095
:1026800009E013E085E4E82E83E0F82EF8010CC0A1
:10269000E9E0F3E01182108212821382349683E023
:1026A000E534F807B9F7ECCF928120813181892F89
:1026B000291708F4822F381708F4832F8383381BD7
:1026C0003183281B2083981B92833496EE16FF06D5
:1026D00059F70E948C2C64E670E084E80E94922CEA
:1026E000C9E0D3E064E670E088810E94E92C64E6EA
:1026F00070E089810E94E92C64E670E08A810E9482
:10270000E92C64E670E08B810E94E92C2496EC169B
:10271000FD0641F70E943E2D579A8BB18F779BB1F2
:1027200090682FB7F894E016F10699F0F80131910E
:102730008F0148E09BB9000000C037FF8BB9330F11
:10274000000000C000C000C08BB900C04A9591F7DE
:10275000EACF2FBF8FE391E00197F1F700C00000AF
:10276000DF91CF911F910F91FF90EF90089584B169
:10277000807F84B985B1807F85B98AB1837F8AB92A
:102780008BB1837F8BB93E984698089580B38C7047
:1027900080BB81B3836F81BB0895BF92CF92DF92DC
:1027A000EF92FF920F931F93CF93DF9380910A01D3
:1027B00090910B01892B91F0809140028F5F809363
:1027C000400281110BC00E944F1290E090930B01C8
:1027D00080930A01892B11F40E94C61292E8E92E17
:1027E00092E0F92E8701C0E0B12C87E0C82ECC0E14
:1027F0008C2F0E948E0D8C2D0E948E0D8C2F0E948E
:10280000E20DF8019081891721F08083DD24D394B3
:1028100001C0D12C8C2D0E94E20DF80197818917FF
:1028200019F0878381E001C080E0D82ABD280E948A
:10283000B713CF5F0F5F1F4FC730B9F60E94BE2995
:102840006AEF70E00E94982D9C01682F80913C02F5
:102850008823E9F110923C02E0917802F09179022C
:10286000DF011E9690E07BEF0AEF10E080818B3F46
:10287000A9F0482F50E0681728F06901C41AD50A5A
:10288000A60106C0E801C41BD50BAE01420F531FC1
:102890004E31510514F0708301C091E03196EA1772
:1028A000FB0721F790933C02B11002C0911111C0B7
:1028B00010923B02E0917802F091790290913C02F3
:1028C000A6E9B2E0AF01425F5F4F80E00FC0B110F8
:1028D000EFCF80913B028111EBCF2091CB02809111
:1028E0003E0290913F02211119C057C0E701299182
:1028F0007E013C91321741F030813B3F21F46083EF
:102900002C9391E001C081E031961196E417F50710
:1029100069F790933C0280933B02DFCF892B31F41F
:1029200025982D9826982E9827982F9880913E02CA
:1029300090913F029170892B79F480913D02882318
:1029400019F026982E9802C0269A2E9A90913D0250
:1029500081E0892780933D0280913E0290913F0261
:102960008130984780F01092CB026091C50270913F
:10297000C6028091C7029091C8020E941D12109257
:102980003F0210923E0280913E0290913F020196DA
:1029900090933F0280933E0210C0892B71F01092F9
:1029A0003F0210923E026091C5027091C602809172
:1029B000C7029091C8020E941D128B2DDF91CF910A
:1029C0001F910F91FF90EF90DF90CF90BF900895EF
:1029D0008091700287FF11C08091E80082FD05C0E0
:1029E00080916E028111F8CF11C08091E8008B7741
:1029F0000BC080916E02882349F08091E80080FF2F
:102A0000F8CF8091E8008E778093E8000895982FA2
:102A1000973068F59093E900981739F07091EC00C1
:102A20002091ED005091F00003C0242F762F50E04C
:102A300021FD02C09F5FECCF3091EB003E7F3093D1
:102A4000EB003091ED003D7F3093ED003091EB00D5
:102A500031603093EB007093EC002093ED005093C5
:102A6000F0002091EE0027FDE5CF80E008958F7003
:102A70008093E90081E008952091760230917702F9
:102A80002617370748F06115710539F42091E800E1
:102A90002E772093E80001C0B901FC0120E0611508
:102AA000710591F180916E02882309F440C0853050
:102AB00009F43FC08091E80083FD3DC08091E800AB
:102AC00082FD2FC08091E80080FFE9CF2091F300C4
:102AD0008091F20090E0922B6115710559F08830D9
:102AE000910540F424912093F100319661507109D1
:102AF0000196F2CF21E0089709F020E08091E800EC
:102B00008E778093E800CBCF2111CCCF0AC0809183
:102B10006E02882361F0853061F08091E80083FDCA
:102B20000AC08091E80082FFF2CF80E0089582E041
:102B3000089583E0089581E0089520917602309110
:102B400077022617370748F06115710539F420918F
:102B5000E8002E772093E80001C0B901FC0120E0D5
:102B60006115710579F180916E028823F1F185304C
:102B7000F1F18091E80083FD3CC08091E80082FD86
:102B80002EC08091E80080FFEBCF2091F300809170
:102B9000F20090E0922B6115710551F0883091059B
:102BA00038F421912093F100615071090196F3CF1F
:102BB00021E0089709F020E08091E8008E7780936B
:102BC000E800CECF2111CFCF0AC080916E028823BA
:102BD00061F0853061F08091E80083FD0AC080914A
:102BE000E80082FFF2CF80E0089582E0089583E05C
:102BF000089581E008951F93CF93DF93CDB7DEB79B
:102C0000AA970FB6F894DEBF0FBECDBFE0E7F2E0A3
:102C10008091F100819322E0E837F207C9F78091B3
:102C200071028930B9F150F4823009F4A5C08330C3
:102C300009F45FC0813009F0EEC00CC08B3009F49C
:102C400070C008F488C0823409F4AEC0853409F439
:102C5000C5C0E1C080917002813A09F0DCC080916A
:102C6000E800877F8093E80080917402909175025C
:102C7000892B21F460E28CE492E003C060E080E004
:102C800090E070E00E949D158091E8008B77809322
:102C9000E800C1C080917002813209F0BCC080910F
:102CA000740290917502029708F0B5C08091E80017
:102CB000877F8093E8008091E80082FD05C08091C5
:102CC0006E028111F8CFA7C02091F3008091F2002D
:102CD00090E0922B029729F48091F1008B7F813054
:102CE00021F48091F10080934B028091E8008B7772
:102CF00058C080917002813A09F08DC080917402B1
:102D000090917502892B09F086C08091E800877F39
:102D10008093E8008091E80080FFFCCF809109015A
:102D20003BC080917002813209F075C080917402BD
:102D300090917502892B09F06EC08091E800877F21
:102D40008093E8000E94E814809172028093090148
:102D50000E94B82260C080917002813209F05BC08D
:102D60008091E800877F8093E8000E94E8148091BA
:102D7000730280934A024FC080917002813A09F039
:102D80004AC08091E800877F8093E8008091E80046
:102D900080FFFCCF80914A028093F1008091E8008F
:102DA0008E778093E8002FC080917002803C99F567
:102DB0008091740290917502029741F580917202A0
:102DC00090917302892B11F58091E800877F8093A1
:102DD000E8006BE170E08CEF95E013C08091700229
:102DE000803CC9F48091740290917502079771F448
:102DF0008091E800877F8093E80062EB70E08AE4CE
:102E000095E00E943C150E94E81405C08091EB00FB
:102E100080628093EB008091E80083FFA4C18091E1
:102E2000700290917102492F50E04A30510508F02C
:102E30009AC1FA01E057FF4F0C94C02D803821F061
:102E4000823809F090C108C080916C0290916D02A7
:102E5000992389F082600FC0809174028F7087304F
:102E600008F081C18093E9008091EB0085FB882701
:102E700080F91092E9009091E800977F9093E80024
:102E80008093F1001092F10033C1282F2D7F09F0BB
:102E90006AC1882319F0823061F065C180917202A5
:102EA000813009F060C1933009F080E080936D02B9
:102EB0002EC08091720281112AC0809174028F709D
:102EC0002FEF280F263008F04EC18093E9002091A3
:102ED000EB0020FF1CC0933021F48091EB00806256
:102EE00014C09091EB0090619093EB0021E030E0F2
:102EF000A90102C0440F551F8A95E2F74093EA00EA
:102F00001092EA008091EB0088608093EB001092B1
:102F1000E9008091E800877FEEC0811124C1109103
:102F200072021F778091E3008078812B8093E30009
:102F30008091E800877F8093E8000E94E8148091E8
:102F4000E80080FFFCCF8091E30080688093E3007D
:102F5000111102C082E001C083E080936E0203C1C0
:102F60008058823008F0FFC0809172029091730205
:102F70008C3D53E0950779F583E08A838AE2898363
:102F80004FB7F894DE01139620E03EE051E2E32FC4
:102F9000F0E050935700E49120FF03C0E295EF70FA
:102FA0003F5FEF708E2F90E0EA3010F0C79601C0BF
:102FB000C0968D939D932F5F243149F74FBF809129
:102FC000E800877F8093E8006AE270E0CE01019616
:102FD0000E949D157BC04091740250917502292F6B
:102FE00033272330310511F168F42130310509F41C
:102FF000C9C02230310509F0B6C062E570E088E151
:1030000097E05DC02132310509F43BC02232310521
:1030100009F444C02F30310509F0A5C0EAEAF7E011
:10302000E4916E2F70E088EA97E045C099278130DF
:103030009105B9F070F082309105D9F0039709F04D
:1030400092C0ECE7F7E0E4916E2F70E08CE797E038
:1030500032C0E4EAF7E0E4916E2F70E084EA97E092
:103060002AC0EAE9F7E0E4916E2F70E08AE997E080
:1030700022C0E2E8F7E0E4916E2F70E082E897E08A
:103080001AC04115510509F482C04130510509F0BB
:103090006AC069E070E083E497E011C04115510512
:1030A00009F47AC04130510509F05DC060EC70E070
:1030B00088E196E004C06115710509F454C02091BF
:1030C000E800277F2093E8000E943C158091E800EB
:1030D0008B778093E80047C0803809F044C0809126
:1030E000E800877F8093E80080916F028093F10071
:1030F0008091E8008E778093E8000E94E81433C046
:10310000811131C0809172029091730299270297C8
:1031100054F58091E800877F8093E8001091720257
:1031200010936F020E94E814111106C08091E30011
:1031300087FD02C081E001C084E080936E0242E01E
:1031400061EC81E00E94071542E261EC82E00E949E
:10315000071542E361EC83E00E94071542E360EC4F
:1031600084E00E9407158091E80083FF1AC08091D7
:10317000E800877F8093E8008091EB008062809375
:10318000EB000FC062E170E08AE697E098CF69E05B
:1031900070E08AE297E093CF60E470E088ED96E01B
:1031A0008ECFAA960FB6F894DEBF0FBECDBFDF91CB
:1031B000CF911F9108951F920F920FB60F92112475
:1031C0002F933F934F935F936F937F938F939F932F
:1031D000AF93BF93CF93DF93EF93FF93C091E90039
:1031E000CF708091EC00D82FD17080FDD0E8109284
:1031F000E9008091F000877F8093F00078940E942E
:10320000FB151092E9008091F00088608093F00037
:10321000CD2BCF70C093E900FF91EF91DF91CF915B
:10322000BF91AF919F918F917F916F915F914F91DE
:103230003F912F910F900FBE0F901F901895E8EDC2
:10324000F0E080818E7F80831092E2001092DA009D
:103250001092E100A0EEB0E08C9181608C938081AF
:103260008F77808319BCA7EDB0E08C918E7F8C9313
:1032700080818F7E8083109242020895CF92DF92E8
:10328000EF92FF920F931F93CF93DF93C8EDD0E09F
:1032900088818F7E8883E7EDF0E080818160808384
:1032A00084E082BF81E08093420288818E7F8883A0
:1032B00002EE10E0F80110821092DA0081EEC82EC2
:1032C000D12CF601108288818F778883888180686D
:1032D000888388818F7D888319BC10926E0210923A
:1032E0006F0210926D0210926C0290EEE92EF12C9A
:1032F000F70180818B7F808388818160888342E0B1
:1033000060E080E00E940715F60180818E7F808357
:10331000F801808181608083808188608083F701EB
:1033200080818E7F8083888180618883DF91CF91C7
:103330001F910F91FF90EF90DF90CF9008951F9213
:103340000F920FB60F9211242F933F934F935F93D9
:103350006F937F938F939F93AF93BF93EF93FF935D
:103360008091E10082FF09C08091E20082FF05C0E8
:103370008091E1008B7F8093E1008091DA0080FFF3
:103380002AC08091D80080FF26C08091DA008E7F0D
:103390008093DA008091D90080FF18C080E189BD58
:1033A00082E189BD09B400FEFDCF81E080936E0209
:1033B0008091420281110FC00E941F190E943E1984
:1033C0008091E20084608093E20005C019BC1092F5
:1033D0006E02109242028091E10080FF17C080913E
:1033E000E20080FF13C08091E2008E7F8093E200B4
:1033F0008091E20080618093E2008091D800806239
:103400008093D80019BC85E080936E028091E10022
:1034100084FF43C08091E20084FF3FC080E189BD0A
:1034200082E189BD09B400FEFDCF8091D8008F7D77
:103430008093D8008091E1008F7E8093E10080919D
:10344000E2008F7E8093E2008091E20081608093B1
:10345000E20080916F02882311F084E007C0809120
:10346000E30087FD02C081E001C083E080936E022B
:103470000E94B8220E94552610924902809148026B
:10348000882349F08091430281608093430260E089
:1034900086950E94780E0E940B288091E10083FFA0
:1034A00027C08091E20083FF23C08091E100877FE5
:1034B0008093E10082E080936E0210926F0280910F
:1034C000E1008E7F8093E1008091E2008E7F809307
:1034D000E2008091E20080618093E20042E060E0DF
:1034E00080E00E9407158091F00088608093F000D2
:1034F000FF91EF91BF91AF919F918F917F916F91CC
:103500005F914F913F912F910F900FBE0F901F90A1
:1035100018952091E4003091E50095E64091EC008B
:10352000842F817040FF23C08091E80080FD1DC082
:1035300080916E02882399F0853099F08091EB009C
:1035400085FD11C04091E4005091E5002417350736
:1035500029F3915011F09A01E1CF84E0089582E0BF
:10356000089583E0089581E0089580E008954091F2
:10357000E80042FFDDCF0895EF92FF920F931F9373
:10358000CF93DF937C018B010E94891A811119C0AE
:10359000E70101151105A1F08091E80085FD0AC041
:1035A0008091E8008E778093E8000E94891A882332
:1035B00081F307C089918093F10001501109E9CF8F
:1035C00080E0DF91CF911F910F91FF90EF900895D0
:1035D00080916E02843011F081E0089582E00895B8
:1035E000CF93DF9300D01F92CDB7DEB790916E02DC
:1035F000943019F589837B836A8382E08093E900A4
:103600008FEF9091E800815095FD06C095ED9A9559
:10361000F1F700008111F5CF8091E80085FF0DC022
:1036200040E050E063E070E0CE0101960E94BC1AD9
:103630008091E8008E778093E8000F900F900F90B4
:10364000DF91CF910895CF93DF93EC010E94E81AA8
:10365000823011F0843031F4BE0184E0DF91CF91EB
:103660000C94F01ADF91CF910895BC016058710954
:1036700083E00C94F01ACF93DF93EC010E94E81AD8
:10368000823011F08430F9F482E08093E9008FEF0A
:103690009091E800815095FD06C095ED9A95F1F75F
:1036A00000008111F5CF8091E80085FF0CC040E05B
:1036B00050E066E070E0CE010E94BC1A8091E80004
:1036C0008E778093E800DF91CF910895CF93DF93B9
:1036D000EC010E94E81A823011F08430D9F5809113
:1036E0000901882339F08091900287FF03C060E2CE
:1036F00082E002C068E081E08093E9008FEF909162
:10370000E800815095FD06C095ED9A95F1F700000F
:103710008111F5CF8091E80085FF1CC080910901DF
:10372000811105C040E050E068E070E003C070E047
:1037300040E050E0CE010E94BC1A8091E8008E77F4
:103740008093E80080E2FE01ACE4B2E001900D92CB
:103750008A95E1F7DF91CF910895CF93DF93CDB7AD
:10376000DEB7C955D1090FB6F894DEBF0FBECDBF85
:1037700084B7877F84BF0FB6F894A89580916000C6
:10378000886180936000109260000FBE90E080E836
:103790000FB6F89480936100909361000FBE85B7D7
:1037A000806885BF85B7806885BF0E941F190E9409
:1037B0003E198091E20084608093E20078948091C9
:1037C0006E028823A1F01091E9001F709091EC0027
:1037D000892F817090FD80E8182B1092E90080916C
:1037E000E80083FD0E94FB151F701093E90082E042
:1037F00084BD93E095BD9AEF97BD80936E000E94C3
:103800004F1290E090930B0180930A010E94B7132E
:103810000E94C613A2E8B2E0E6E9F2E011921D921E
:1038200022E0E43AF207D1F78EE090E00E94D22D38
:103830008093780290937902FC010E962BEF2193EE
:103840008E179F07E1F780E090E00E94502D8F3E99
:103850009E4F11F00E94772A8CE090E00E94422D4A
:1038600090E0A0E0B0E080937A0290937B02A09376
:103870007C02B0937D0289EA8093800089E0809386
:10388000810024982C983F988AB18F7C8AB96E98D1
:10389000479A8BB180638BB9769A8FE090E00E9453
:1038A0004A2D60937E0270937F02809380029093F2
:1038B000810267704FEF649FB00111247595679581
:1038C000759567957727709389006093880070934A
:1038D0008B0060938A0070938D0060938C000E942F
:1038E000C61280E090E00E94502D8F3E9E4F11F056
:1038F0000E94772A82E090E00E94422D8093B602D7
:103900000E94662A909391028093900283E090E057
:103910000E94422D682F70E080E090E00E946020BD
:1039200080919202811136C080E090E00E94502D7B
:103930008F3E9E4F21F00E94772A0E94D10E88E090
:1039400090E00E944A2D609343027093440280935A
:103950004502909346026E7F71F40E94D10E88E07A
:1039600090E00E944A2D609343027093440280933A
:103970004502909346020E94310E1092AB02809154
:10398000430280FF04C060E086950E94780E81E0CB
:10399000809392026091C5027091C6028091C70225
:1039A0009091C8020E941D128CE091E090939402C5
:1039B00080939302F1E4EF2EF12CEC0EFD1E22E039
:1039C000E20EF11CA1EECA2EA7E0DA2E80916E0263
:1039D000853009F069C080916E02843009F441C0DD
:1039E0001092950220E488E190E00FB6F894A89533
:1039F000809360000FBE209360001092AB02809114
:103A00004902811117C081E08093490280914302ED
:103A1000982F9170909348028E7F809343023FEFDE
:103A200040E782E0315040408040E1F700C00000B4
:103A30000E94361383B7817F846083BF83B7816020
:103A400083BF7894889583B78E7F83BF0FB6F89431
:103A5000A89580916000886180936000109260005A
:103A60000FBE80916D02882309F4B0CF0E944F12DF
:103A700090E090930B0180930A010E94B7130E947B
:103A8000C613E6E9F2E0119292E0E43AF907D9F7B9
:103A90000E94CD13E6E9F2E08191811141C222E05A
:103AA000E43AF207C9F792CF0E94CD13E7EBF2E0B8
:103AB000A6E9B2E000E010E0302F2D91919192271D
:103AC000A1F180E0BB24B3944B2D492351F16196C1
:103AD0008FAF619762963FAF62972B2181E009F427
:103AE00080E063968FAF63970E94BE298160782F34
:103AF00065969FAF8EAF659761964FAD6197629661
:103B00005FAD629763966FAD639765968FAD65976E
:103B10000E944E25F801E954FD4F8081B826B082FD
:103B20002AC08F5FBB0C863079F60F5F1F4F0E30B7
:103B3000110509F0C1CF8FEF66968FAF6697679634
:103B40008FAF679768961FAE68970E94BE29816005
:103B5000782F6A969FAF8EAF6A9766964FAD66973D
:103B600067965FAD679768966FAD68976A968FADF9
:103B70006A970E944E258091AB02882309F499C070
:103B80008091AA02E0914302E695E81BE093A60229
:103B9000823059F4F0E0E151F84FE4910E2F10E03B
:103BA000EAE3AE2EE5E2BE2E58C0863059F4F0E0CE
:103BB000E451F84FE4910E2F10E07AE2A72E75E25F
:103BC000B72E4BC0893061F4E695F0E0E751F84F2D
:103BD000E4910E2F10E065EDA62E63E2B62E3DC0F7
:103BE0008F3061F4E695F0E0EA51F84FE4910E2F42
:103BF00010E05CEBA52E54E2B52E2FC0853159F4B0
:103C0000F0E0ED51F84FE4910E2F10E04CE6A42EB9
:103C100044E2B42E22C0883199F0833241F4F60197
:103C2000059114913AEBA32E36E2B32E16C08432DE
:103C300071F404EF11E02FEFA22E23E2B22E0DC09B
:103C400008EE13E099E3A92E94E2B92E06C000ED28
:103C500017E084EDA82E83E2B82E8091A702882376
:103C600089F01092A7020E94BE29980120953095F4
:103C7000820F931F9093A5028093A4021092A90231
:103C80001092A8028091A4029091A5020E9494290A
:103C90008017910770F0E091A402F091A5020E0F39
:103CA0001F1F1093A5020093A40284EA92E0F5017D
:103CB00009958091B3029091B4020E9494299C01CD
:103CC0009091B202992321F02431310508F478C093
:103CD0008091AE021091AF0281110BC0111141C150
:103CE0002091B00221113DC12091B102211139C1B1
:103CF00067C09F3F19F09F5F9093B202181624F49B
:103D00000E94E3288093AE028091AE0287FF05C037
:103D10000E94E32881958093AE02111624F40E943C
:103D2000E3288093AF028091AF0287FF05C00E9415
:103D3000E32881958093AF023091AE023323E1F006
:103D40002091AF022223C1F045EB3403C0011124BE
:103D5000992319F09093AE0203C081E08093AE02E4
:103D600035EB2303C0011124992319F09093AF027E
:103D700003C081E08093AF028091B002181624F452
:103D80000E94C1288093B0028091B00287FF05C0D5
:103D90000E94C12881958093B0028091B1021816CB
:103DA00024F40E94C1288093B1028091B10287FF60
:103DB00005C00E94C12881958093B1020E94CA2942
:103DC0000E9455269091B502891721F00E94552630
:103DD0008093B50280916E02843009F0F7CD809314
:103DE000E9008091E80082FFF1CD8091E80085FF35
:103DF00021C00E94891A81111BC000E410E0CE018D
:103E000001965C0108C08091F100F50181935F018A
:103E10000150110969F08091E80085FDF4CF80918F
:103E2000E8008B778093E8000E94891A882399F331
:103E300091E001C090E08091E8008B778093E800EA
:103E4000992309F4C3CD1981111115C08091CB02BA
:103E5000882361F11092CB0281E08093CA022296FE
:103E60001FAE229723961FAE23978EEF24968FAF17
:103E7000249763E070C01130C9F422961FAE2297D8
:103E800023961FAF23978CE0E8E2F1E0D701019081
:103E90000D928A95E1F78EEF60968FAF60976FE095
:103EA000CE018F5B9F4F0E94242890CD8091CA0243
:103EB0008823A1F1123019F0133091F047C06091BE
:103EC000C5027091C6028091C7029091C8020E94FB
:103ED000EB2A22961FAE229723961FAF239715C079
:103EE0008A81813039F040F0823081F581E0809321
:103EF000C90202C01092C90222961FAE229783E027
:103F000023968FAF23978091C90224968FAF249771
:103F10008EEF25968FAF259764E01DC08FEF17C0F9
:103F200080E189BD82E189BD09B400FEFDCF8091A9
:103F3000D8008F7D8093D8008091E00082608093CC
:103F4000E0008091E00081FDFCCF40CD81E0229631
:103F50008FAF229761E0CE018F5B9F4F0E94242894
:103F600035CD9F3F09F0C7CED8CE0E94C92B292F4F
:103F70002F70E92FE295EF704E2F50E0FA01329743
:103F8000EE30F105B8F4E656FF4F0C94C02D803F9B
:103F900099F018F4883E70F40FC0843F59F40CC0B7
:103FA000883E50F0813F31F407C0822F8695869578
:103FB0008695089580E0089581E008951092B203F7
:103FC0001092B1030E94412BECEAF2E086E0DF019F
:103FD0001D928A95E9F71092B2021092BD030E94D9
:103FE000CA2980E090E00E943F2680E090E00C9497
:103FF0002926882341F080959091B20389238093EC
:10400000B2030C94412B0895882339F09091B203A8
:10401000892B8093B2030C94412B0895882341F09F
:1040200080959091B30389238093B3030C94412B23
:104030000895882339F09091B303892B8093B303BB
:104040000C94412B0895CF92DF92EF92FF92CF9381
:10405000DF9300D000D0CDB7DEB70E941D126B01F8
:104060007C018091C902882319F08091CA0202C0A4
:1040700080E090E080FF0FC0198282E08A83C70150
:10408000B6010E94EB2A8B838EEF8C8364E0CE0115
:1040900001960E942428C092C502D092C602E092E6
:1040A000C702F092C8020E94DE1F0F900F900F907F
:1040B0000F90DF91CF91FF90EF90DF90CF90089518
:1040C0006093B5037093B6038093B7039093B803DE
:1040D0000C94DE1F809105039091D402891719F08A
:1040E0008F5F8770FBCF0895CF938091D302829525
:1040F0008F7009F05FC08091D002882309F45AC004
:1041000080910503B091D4027091CE02A091CF02AC
:104110004091D1025091D20291E07F3F09F090E0AE
:10412000692FC6E08B1709F445C04115510521F0F0
:10413000AF3F21F020E003C021E001C0262F90E036
:1041400020FD35C0C89FF001C99FF00D1124EB522E
:10415000FD4F21812A132BC02081271328C02281E3
:10416000211125C0238134812417350710F42150F3
:104170003109241B350B283C3105C8F42091D302AA
:104180002F7020612093D30226E0289FF001299F01
:10419000F00D1124E652FD4F80818F708061808385
:1041A0008EEC92E00E949B04CF910C946A200196C1
:1041B0008770B8CFCF910895AF92BF92CF92DF9220
:1041C000EF92FF920F931F93CF93DF93CDB7DEB79C
:1041D00061970FB6F894DEBF0FBECDBF8C0185E0AE
:1041E000F801DE011D9601900D928A95E1F7D80144
:1041F0003C9111962C9111971296EC905091CE0211
:104200006091CF028091D1029091D202009731F05B
:104210006F3F31F441E05F3F19F403C041E001C05A
:1042200040E0B42FB170BB2E40FD43C1F801C38004
:10423000D480A090D002AA2009F4E2C04091D30219
:10424000C816D90628F0D601A81BB90BCD0104C0A9
:10425000809590958C0D9D1DFF24F394883C9105CD
:1042600048F0F12C407F09F090C08EEC92E00E9463
:104270009B0417C1842F807F09F052C0621312C0C3
:10428000531310C0FE2CE1100DC04F7040614093DD
:10429000D3028EEC92E00E949B048091D302F8013D
:1042A000858354C1CD2831F02F3F31F481E03F3F69
:1042B00019F403C081E001C080E080FD03C081E00B
:1042C0008E2502C080E090E0F82FF170FF2E80FF75
:1042D0001CC0809105034091D40256E0841709F474
:1042E00012C190E0589FF001599FF00D1124EB523C
:1042F000FD4F6181261306C06081361303C06281C1
:10430000E61203C001968770E9CFFE2CEE2009F477
:104310001DC18091D30281608093D302F12C16C11C
:10432000621308C0531306C0E11004C08091D30289
:10433000F80199C03D872E878D859E850E94B51F07
:10434000882369F1EE2059F12091D302822F8295C2
:104350008F7090E0029774F08091CE029091CF021E
:1043600098878F831986DB86CA862C87CE010796AD
:104370000E949B0486E0F801AEECB2E001900D9241
:104380008A95E1F70E9474200DC0621771F03D8795
:104390002E878D859E850E94B51F81111AC0C80188
:1043A0000E949B04FF24F394D1C05313F0CFE1107B
:1043B000EECF8091D302F8018583C8010E949B044F
:1043C00086E0EEECF2E0DF011D928A95E9F7FA2C27
:1043D000BDC0EE2021F32091D302822F82958F70F1
:1043E00090E002973CF28091CE029091CF029A83A6
:1043F00089831B82DD82CC822E83CE010196B8CFC9
:10440000C816D90638F0C81AD90AB8ECCB16D104A8
:1044100050F007C0809590958C0D9D1D883C9105AE
:1044200010F0F12C3EC0FE2CEE2009F4B8CF621340
:1044300027C0531325C02091D30220FD18C0822F1E
:1044400082958F70482F50E04115510581F0F80199
:1044500025834F30510541F08F5F982F9295907FC3
:10446000822F8F70892B8583C8010E949B0486E070
:10447000F801AEECB2E001900D928A95E1F766C0CA
:104480003D872E878D859E850E94B51F811172CF35
:104490008091D30281608093D302C8010E949B0463
:1044A00055C0EEECF2E086E0DF011D928A95E9F757
:1044B0004DC0EE2009F473CF3D872E878D859E85F4
:1044C0000E94B51FF82E882309F469CF86E0F80111
:1044D000AEECB2E001900D928A95E1F78091CE02A8
:1044E0009091CF020E94C92B92959F70963041F413
:1044F0008091CD0291E089278093CD029093CC02E8
:104500000E94742023C03D872E878D859E850E9442
:10451000C92B292F22952F70223028F49F7039F053
:10452000811105C00BC0243028F49F7049F4805ECF
:10453000883020F0C8010E949B04BF2CFB2C06C0D1
:10454000D80115969C91907F91F7F8CF8F2D6196A9
:104550000FB6F894DEBF0FBECDBFDF91CF911F9194
:104560000F91FF90EF90DF90CF90BF90AF900895A4
:104570001092B30380910901882331F08091900259
:1045800087FF02C08EE101C086E0EBE5F3E0DF01CA
:104590001D928A95E9F70C94DE1F882309F463C005
:1045A000823869F40E94552681FF5DC069E389E580
:1045B00093E00E94312A0E94412B69E30EC08338A8
:1045C00091F40E94552680FF4EC063E589E593E093
:1045D0000E94312A0E94412B63E589E593E00E9405
:1045E000092A0C94412B843869F40E94552682FFD5
:1045F0003AC067E489E593E00E94312A0E94412B8A
:1046000067E4EBCF9CEF980F913A10F4682FE5CF59
:1046100090E2980F983088F4877021E030E0A9018B
:1046200002C0440F551F8A95E2F7CA018095909108
:10463000B30389238093B303D4CF9BE5980F9330C2
:1046400020F480E090E00C943F2698E5980F973195
:1046500020F480E090E00C942926803F20F00E9416
:104660003C280C94CA290895882309F489C082380B
:10467000B1F40E94552681FD83C069E389E593E08A
:104680000E94312A0E94412B2FEF41EE54E021502D
:1046900040405040E1F700C0000069E317C0833894
:1046A000D9F40E94552680FD6BC063E589E593E04F
:1046B0000E94312A0E94412B8FEF91EE24E081501D
:1046C00090402040E1F700C0000063E589E593E0F9
:1046D0000E94092A0C94412B8438B1F40E9455267B
:1046E00082FD4EC067E489E593E00E94312A0E9472
:1046F000412B4FEF51EE84E0415050408040E1F7B4
:1047000000C0000067E4E2CF9CEF980F913A30F4CC
:10471000682F89E593E00E94312ADCCF90E2980F60
:10472000983080F4877021E030E0A90102C0440F86
:10473000551F8A95E2F7CA019091B303892B8093A4
:10474000B303C8CFEBE5E80FE33038F4F0E0EC5CFE
:10475000FE4F808190E00C943F26E8E5E80FE731BA
:1047600048F4F0E0EE0FFF1FE95CFE4F808191817D
:104770000C942926803F20F00E9406290C94CA2917
:104780000895CF93C82F0E943423C93349F42FEFE3
:1047900087EE93E0215080409040E1F700C0000098
:1047A0008C2FCF910C94CD220895EF92FF921F93FE
:1047B000CF93DF93EC0189E0E82E83E0F82E10E040
:1047C0008C8197014091460260914502810F0E94C1
:1047D000E00E1F5E84E0E80EF11C1F3F89F70E9487
:1047E00036139A818C8190FF02C08F5F01C0815087
:1047F0008C83DF91CF911F91FF90EF900895EF92FE
:10480000FF920F931F93CF93DF938C01C9E0D3E006
:10481000E12CF12CF8018481F7E0EF16F1041CF48F
:10482000882339F002C0811104C09E0140914602E4
:1048300002C09E0140E060914502809144020E94C6
:10484000E00E8FEFE81AF80A24969FE0E916F104CB
:1048500009F70E943613F801848190E00196817077
:1048600099278483DF91CF911F910F91FF90EF9053
:104870000895EF92FF920F931F93CF93DF93EC0174
:104880008C819D810196817099279D838C8389E01D
:10489000E82E83E0F82E10E005E5212F26958C8187
:1048A0009D81820F911D8170970140914602609118
:1048B0004502809F802D11240E94E00E1F5F84E03E
:1048C000E80EF11C1F3049F7DF91CF911F910F9136
:1048D000FF90EF900C9436130F931F93CF93DF93B9
:1048E000C9E0D3E0FE011182108212821382349655
:1048F00083E0E534F807B9F700E010E080910703A2
:10490000082E000C990B0817190794F080912201CA
:10491000082E000C990B8017910754F09E014091CE
:10492000460260914502809144020E94E00E04C05C
:10493000198218821A821B820F5F1F4F24960F3034
:104940001105E1F60E943613809121019091070331
:10495000980F9093070320912201280F20932201A2
:10496000121614F49E301CF0819580932101DF9182
:10497000CF911F910F910895BF92CF92DF92EF9246
:10498000FF920F931F93CF93DF93FC01828180FFEF
:1049900003C0DD24DA9402C0DD24D39409E013E0DF
:1049A000C0E0D0E02FE0B22EF80111821082128216
:1049B000138294E0E92EF12CC12C809106038C0D1A
:1049C00080312CF06B2D0E948A2D892F02C087FD2B
:1049D000815F082E000C990BC817D90791F48091BC
:1049E00046028E9DA0018F9D500D1124559547952F
:1049F00055954795980160914502809144020E9427
:104A0000E00ECD0CF1E0EF1AF108B9F621960C5F3B
:104A10001F4FCF30D10541F60E9436138091060317
:104A200091E0D91206C0811102C08EE007C081500A
:104A300005C090E00196BE010E94AC2D8093060354
:104A4000DF91CF911F910F91FF90EF90DF90CF906A
:104A5000BF900895CF93DF93EC01E3E4F2E043814C
:104A600062818C810E94750F8C818F5F8C83DF91B6
:104A7000CF910895CF93DF93EC01EC81F0E0E85003
:104A8000F84F4491E3E4F2E0628181810E94750F66
:104A90008C818F5F8C83DF91CF9108950F931F934B
:104AA000CF93DF93CDB7DEB767970FB6F894DEBF2D
:104AB0000FBECDBF4B8B5C8B6D8B7E8B8F8B0E892E
:104AC0001F890115110531F05F3F31F481E04F3F3F
:104AD00019F403C081E001C080E080FD32C0242FC2
:104AE00030E0A1E0B0E0042E01C0AA0F0A94EAF77A
:104AF000852F90E0662319F07091CD0205C0FC016E
:104B0000E55BFC4F70817A237723A1F046E0489F54
:104B1000F001499FF00D1124E20FF31FEE0FFF1F6C
:104B2000E657FE4F40815181FC01E55BFC4F9081CF
:104B3000A92B06C0FC01E55BFC4FA0958081A82352
:104B4000A08386E0FE013D96DF01982F1D929A9585
:104B5000E9F74D875E876F87198B088BDE01179603
:104B600001900D928A95E1F7CE0107960E94DC2014
:104B700081113EC086E0FE013796DE01119601905C
:104B80000D928A95E1F7FF81E8856A857B8561153D
:104B9000710531F0EF3F31F481E0FF3F19F403C0BC
:104BA00081E001C080E080FD23C02091D40230E08C
:104BB000C9010196877099274091050350E0841739
:104BC000950779F1F983EA837D836C8396E0929F60
:104BD000D001939FB00D1124AB52BD4FFE01319611
:104BE00001900D929A95E1F78093D4020E946A2079
:104BF00016E0809105039091D4028917F9F0189F6F
:104C0000C00111248B529D4F0E94DC208823B1F0FB
:104C10008091050390E001968770992780930503A2
:104C2000E8CF0E94B8221092D40210920503EEEC55
:104C3000F2E086E0DF011D928A95E9F767960FB6EC
:104C4000F894DEBF0FBECDBFDF91CF911F910F91C2
:104C500008952091490330914A032817390771F0CC
:104C600090934A0380934903E0919302F091940258
:104C7000309721F00084F185E02D0994089520916A
:104C80004703309148032817390771F09093480380
:104C900080934703E0919302F0919402309721F0C2
:104CA0000680F781E02D09940895E0919302F09138
:104CB0009402309721F00190F081E02D099480E07A
:104CC0000895CF93DF938091330290913402892B22
:104CD00029F180913502909136020E949429209109
:104CE0000701309108012817390760F4C091330299
:104CF000D0913402D260CE010E940712CE010E94F0
:104D0000F11104C0809133020E94C1231092360237
:104D1000109235021092340210923302DF91CF913B
:104D200008959091430290FF04C09695981740F023
:104D300003C0811105C090E0961710F40C94C70EC3
:104D40000C94B30E882311F0FA0101C0FB01099401
:104D50009091430290FF0DC0E9E0F3E0818360830E
:104D600042831382349693E0E534F907B9F70C9443
:104D7000361308950F931F93CF93DF9300D000D085
:104D8000CDB7DEB78C018091080381110AC09E0166
:104D90002F5F3F4F4FEF6FEF0E94E00E8A818093AD
:104DA0000803F8018481813051F028F0823061F4E9
:104DB000409108030AC08091080340E007C0609159
:104DC000080340E080E003C040E080E060E00E9433
:104DD000A826F801848190E0019663E070E00E94CB
:104DE000AC2D84830F900F900F900F90DF91CF9197
:104DF0001F910F9108955F926F927F928F929F9271
:104E0000AF92BF92CF92DF92EF92FF920F931F93D8
:104E1000CF93DF9300D000D0CDB7DEB7182F762E1A
:104E2000042F622E9091430290FF6DC0E92FE6950A
:104E3000AE2FB0E0AB59BE4F8C918093AA029E7FFB
:104E4000923061F49E012F5F3F4F812F0E94E00E50
:104E50004B8169818A810E94A82643C0823019F45F
:104E6000009146023EC0863019F41091440239C0C8
:104E70008930D9F38931A9F5E9518E2F8170582EE7
:104E8000E695F0E0ED50F84FA590B49089E0C82E7B
:104E900083E0D82EE12CF12CBB249FE0892E912CAD
:104EA000AE9CC001AF9C900DBE9C900D1124B4012E
:104EB0000E94982D812F511002C0860F01C0861BC1
:104EC0009601402F672D0E94E00E8FEFE81AF80A36
:104ED00084E0C80ED11C8FE0E816F10409F70E94A7
:104EE00036131093440270924502009346026620E6
:104EF00051F060914302709144028091450290917B
:104F000046020E94440E0F900F900F900F90DF9179
:104F1000CF911F910F91FF90EF90DF90CF90BF90B6
:104F2000AF909F908F907F906F905F9008950F93B8
:104F30001F93CF93DF93C62FD42F122FFC018281B2
:104F40008823C9F0609337020E94BE2990934603DC
:104F50008093450380E28C0F883008F057C0C770FB
:104F600081E001C0880FCA95EAF7DF91CF911F91C8
:104F70000F910C94192080913702681330C08091F2
:104F80004503909146030E949429883C910538F589
:104F900000E20D0FCD17B9F080E28C0F883040F49D
:104FA000C77081E001C0880FCA95EAF70E940E2001
:104FB000083028F581E09D2F977001C0880F9A95E1
:104FC000EAF70E941920812F0E94C1230830F0F4D3
:104FD000D77081E001C0880FDA95EAF70AC080E255
:104FE0008C0F883098F4C77081E001C0880FCA9593
:104FF000EAF7DF91CF911F910F910C940E20812F32
:10500000DF91CF911F910F910C94C123DF91CF912C
:105010001F910F91089560914302669570E04BE0F7
:1050200050E086E191E00E94F32E892B19F481E093
:105030008093AB020E94BE299093A5028093A402A4
:10504000089580914B02089520916E02243099F4C6
:1050500023E02093E90070E040E050E00E94BC1A99
:10506000882321F01092CA021092CB028091E800AE
:105070008E778093E8000895803F39F48091AF02E5
:1050800087FF6CC01092AF0269C0813F29F4809104
:10509000AF021816BCF362C09091AE02823F29F4B1
:1050A00097FF5CC01092AE0259C0833F19F41916E5
:1050B000CCF354C0893F41F48091B00218160CF033
:1050C0004DC01092B0024AC08A3F29F48091B002CC
:1050D00087FF44C0F6CF8B3F39F48091B10287FF40
:1050E0003DC01092B1023AC08C3F29F48091B102C8
:1050F0001816BCF333C0843F21F48091AD028E7F3B
:1051000017C0853F21F48091AD028D7F11C0863F8D
:1051100021F48091AD028B7F0BC0873F21F48091F9
:10512000AD02877F05C0883F31F48091AD028F7E4C
:105130008093AD0213C08D3F21F48091BD038E7F1B
:105140000BC08E3F21F48091BD038D7F05C08F3F42
:1051500029F48091BD038B7F8093BD038091AE02C3
:1051600081110EC08091AF0281110AC08091B002FE
:10517000811106C08091B102811102C01092B20269
:1051800008958091BD0380FD16C081FD16C082FD8B
:1051900018C08091B202882391F0883290F428E000
:1051A000829FC001112468E270E00E94AC2D862F1E
:1051B000672B29F007C082E0089584E0089581E01C
:1051C000089588E008958091BD0380FD17C081FD9A
:1051D00017C082FD19C08091B202882399F08C33E8
:1051E00098F423E2829FC00111246CE370E00E94D6
:1051F000AC2D862F672B49F481E0089588E008954F
:1052000081E1089585E0089583E20895803F21F4C7
:105210000E94E328819504C0813F29F40E94E3287D
:105220008093AF020895823F21F40E94E328819584
:1052300004C0833F29F40E94E3288093AE020895BE
:10524000893F19F40E94C12805C08A3F31F40E94A9
:10525000C12881958093B00208958B3F21F40E946C
:10526000C128819504C08C3F29F40E94C1288093F5
:10527000B1020895843F21F48091AD02816017C08E
:10528000853F21F48091AD02826011C0863F21F4F8
:105290008091AD0284600BC0873F21F48091AD0204
:1052A000886005C0883F31F48091AD0280618093B1
:1052B000AD0208958D3F21F48091BD0381600BC044
:1052C0008E3F21F48091BD03826005C08F3F29F499
:1052D0008091BD0384608093BD03089578941F92EC
:1052E0000F920FB60F9211248F939F93AF93BF939A
:1052F0008091B9039091BA03A091BB03B091BC0314
:105300000196A11DB11D8093B9039093BA03A09398
:10531000BB03B093BC03BF91AF919F918F910F904E
:105320000FBE0F901F901895CF92DF92EF92FF92D1
:105330000F931F932FB7F8944091B9035091BA037C
:105340006091BB037091BC032FBF6A017B01EE2407
:10535000FF248C0120E030E0C016D106E206F306FF
:1053600010F4415051099A01281B390BC9011F91B2
:105370000F91FF90EF90DF90CF9008952FB7F894A2
:105380008091B9039091BA03A091BB03B091BC0383
:105390002FBF0895E0919302F0919402309749F065
:1053A00082E08093AC020480F581E02D8CEA92E0EB
:1053B00009950E94BE299093B4028093B302089588
:1053C0001F920F920FB60F9211248F939F93AF935A
:1053D000BF9380919502811113C08091B903909180
:1053E000BA03A091BB03B091BC034196A11DB11DAE
:1053F0008093B9039093BA03A093BB03B093BC030B
:10540000BF91AF919F918F910F900FBE0F901F9002
:105410001895209109012223C9F02091900227FFBD
:1054200015C0262F2695269526952E31C8F4FC0109
:10543000E20FF11D677081E090E001C0880F6A956E
:10544000EAF780959281892382830895FC0106966C
:105450002281621301C012823196E817F907C1F761
:105460000895209109012223C1F02091900227FF85
:1054700014C0262F2695269526952E3130F5FC0151
:10548000E20FF11D677081E090E001C0880F6A951E
:10549000EAF79281892B82830895FC0132962FEFDF
:1054A00030E04191641789F02F3F19F4411101C098
:1054B000232F3F5F3630A9F72F3F39F0FC01E20F71
:1054C000F11D27FDFA95628308950895CF9384E036
:1054D00090E00E94422DC82F81E290E00E94422D70
:1054E0002C2F30E0A901582BCA01CF9108956FEEFF
:1054F0007EEF80E090E00E94742D60E082E090E01A
:105500000E94562D60E083E090E00E94562D10929C
:10551000B5031092B6031092B7031092B80360E07F
:1055200084E090E00E94562D60E081E290E00E94CD
:10553000562D60E085E090E00E94562D60E086E008
:1055400090E00E94562D6FEF87E090E00E94562D6C
:1055500040E050E0BA0188E090E00E94682D60E0F1
:105560008DE090E00E94562D40E050E0BA0188E1C5
:1055700090E00E94682D60E087E190E00E94562D47
:1055800040E050E0BA018CE190E00E94682D60E0BC
:1055900080E290E00E94562D10927E0210927F02CF
:1055A000109280021092810284E0806180937E02DA
:1055B00040917E0250917F02609180027091810241
:1055C0008FE090E00E94682D40E050E0BA0183E156
:1055D00090E00C94682DCF92DF92EF92FF926C01D5
:1055E000EE24FF24C114D104E104F10421F0C70129
:1055F000B60120E101C020E0C72ED82EE92EFF24FD
:10560000C114D104E104F10419F0285FC701B60107
:105610006B017C0154E0F694E794D794C7945A95B3
:10562000D1F7C114D104E104F10419F02C5FC701D2
:10563000B6016B017C0142E0F694E794D794C794DD
:105640004A95D1F7C114D104E104F10419F02E5F99
:10565000C701B601DC01CB01B695A7959795879553
:10566000892B8A2B8B2B09F02F5F822FFF90EF90D5
:10567000DF90CF9008958091B40381111092B4030C
:1056800008959091B3038091B203892B2091B103C7
:10569000982F922B909359038091B4038823D9F0CB
:1056A000892B8093590380910901882331F08091DF
:1056B000900287FF02C08EE101C086E0EBE5F3E0D7
:1056C00090E0815028F021912223D9F39F5FF9CFF8
:1056D00091110E943B2BE0919302F091940230973C
:1056E000A9F080910901882359F08091900287FFE9
:1056F00007C08091590380935A0385E08093590332
:105700000280F381E02D89E593E009940895BF922A
:10571000CF92DF92EF92FF920F931F93CF93DF937D
:105720008C01C090C502D090C602E090C702F090F4
:10573000C8028091B5039091B603A091B703B091D0
:10574000B803C82AD92AEA2AFB2ACFE1D0E0D70138
:10575000C6010C2E04C0B695A795979587950A9417
:10576000D2F780FD04C0219790F7B12C07C0BC2E62
:10577000B8018C2F0E94960F0197A9F38B2DDF9112
:10578000CF911F910F91FF90EF90DF90CF90BF903E
:105790000895CF93DF93EC010E94872BBE010E94F6
:1057A000960FDF91CF910895292F220F920F990F15
:1057B000890F682F669566956695982F977085E096
:1057C000689FB001112440E050E080E0FB01E40F4D
:1057D000F51FE758FC4F208130E0092E02C03695B6
:1057E00027950A94E2F721703327042E01C0220F77
:1057F0000A94EAF7822B4F5F5F4F4530510531F72E
:105800000895292F220F920F990F890FE82FE695FF
:10581000E695E695877051E001C0550F8A95EAF745
:1058200085E0E89FF0011124E758FC4F20E030E0CC
:1058300070E04081CB01022E02C0969587950A94B4
:10584000E2F78170819584278523842781932F5FD8
:105850003F4F2530310569F708950F931F9341E0BD
:1058600050E060E070E004C0440F551F661F771FD2
:105870008A95D2F740955095609570958091C502B4
:105880009091C602A091C702B091C8028A019B0103
:10589000082319232A233B23C901B8011F910F9123
:1058A0000C9423202091B003809582238093B00331
:1058B000982F977079F430E0482F082E000C550B84
:1058C0002417350739F08595859585950E942D2CEF
:1058D0001092B00308950F931F9341E050E060E0F1
:1058E00070E004C0440F551F661F771F8A95D2F7DA
:1058F0008091C5029091C602A091C702B091C802E2
:105900008A019B01082B192B2A2B3B2BC901B801BB
:105910001F910F910C9423201092B9008CE080937A
:10592000B8000895EF92FF920F931F93CF93DF93E8
:10593000182FEB011092BC0084EA8093BC000E94F7
:10594000BE297C018091BC0087FD0EC0CF3F8FEF48
:10595000D807C1F30E94BE298E199F098C179D0795
:1059600088F38EEF9FEF2EC08091B900887F88303A
:1059700041F08091B900887F803119F08FEF9FEF5F
:1059800021C01093BB0084E88093BC000E94BE2914
:105990008C018091BC0087FD0CC0CF3F8FEFD807F2
:1059A000C1F30E94BE29801B910B8C179D0788F3C1
:1059B000D8CF8091B900887F883111F08034F1F61A
:1059C00080E090E0DF91CF911F910F91FF90EF90D9
:1059D00008950F931F93CF93DF93EB018093BB0048
:1059E00084E88093BC000E94BE298C018091BC0099
:1059F00087FD0EC0CF3F8FEFD807C1F30E94BE29AD
:105A0000801B910B8C179D0788F38EEF9FEF0CC0C6
:105A10002091B900287F81E090E0283211F480E0E5
:105A200090E0919581959109DF91CF911F910F9110
:105A300008950F931F93CF93DF93EC0184E8809335
:105A4000BC000E94BE298C018091BC0087FD0EC065
:105A5000CF3F8FEFD807C1F30E94BE29801B910B67
:105A60008C179D0788F38EEF9FEF03C08091BB00DA
:105A700090E0DF91CF911F910F91089584E9809379
:105A8000BC000895F999FECF92BD81BDF89A99277F
:105A900080B50895A6E1B0E044E050E00C947C2D80
:105AA000A8E1B0E042E050E00C947C2D262FF9995B
:105AB000FECF92BD81BDF89A019700B4021639F06D
:105AC0001FBA20BD0FB6F894FA9AF99A0FBE08953E
:105AD0000396272F0E94572D0E94562D252F0E9496
