:100000000C9452040C946F040C946F040C946F04C1
:100010000C946F040C946F040C946F040C946F0494
:100020000C946F040C946F040C9410180C944C17DF
:100030000C9421280C946F040C946F040C946F049E
:100040000C946F040C946F040C946F040C946F0464
:100050000C946F040C94AF270C946F040C946F04F1
:100060000C946F040C946F040C946F040C946F0444
:100070000C946F040C946F040C946F040C946F0434
:100080000C946F040C946F040C946F040C946F0424
:100090000C946F040C946F040C946F040C946F0414
:1000A0000C946F040C946F040C946F04B107D30785
:1000B000D807DD07E207E707EC07F107F607FB07BC
:1000C00000087E0507080A080D08100813088005B7
:1000D00016081B08B608B608F008F0083B095709CF
:1000E000200B800B9909770A880A880A790C7C0C06
:1000F0007F0C820C850C880C8B0CA810AD10B710EF
:10010000AB10B010B510B3108F15B6152417B61577
:100110002417FE1521162417DD16F116381E381E79
:100120004B1E4B1E411E4B1E4B1E4B1E381E381EB7
:10013000461E4B1E4B1E461E29002B003900D75C65
:10014000AC0000001E00140004001D00AE00E20020
:100150001F001A0016001B00AB002A002000080038
:10016000070006000258E3002100150009001900ED
:1001700001580100220017000A00050000003900A4
:100180002F002D0000002D000000010030002D0286
:1001900000002E0000000F5D23001C000B0011006A
:1001A0000000105D240018000D001000015801002F
:1001B00025000C000E003600E7002C00260012007F
:1001C0000F003700E6002800270013003300380036
:1001D000AA000100350031003400D85CA9000000FD
:1001E0002900010001000100010000003A000100A7
:1001F0000100010001000E5D3B00240021001E00F3
:10020000270010503C00250022001F00270010503E
:100210003D0026002300200027000D5D3E00010068
:10022000010001000000C35CAE00AB000000AC00A8
:1002300000000C5D0100A9000000AA000000C25CE3
:100240003F0001005000010000000B5D40004B002A
:1002500051004E001050010041004A0052004D0074
:1002600001002C00420001004F00010001002A00A3
:1002700043000100010001000100010045004400AD
:100280000100010001000000010001000100010067
:10029000010000000100010001000100085D0100F3
:1002A00001000100F2000100010010500100F00007
:1002B000F1000100F400105001000100F300010002
:1002C000F500010001000100010001000000010033
:1002D0000100010000000100000001000100010018
:1002E0000000010000000100010001000100010008
:1002F000000001000100010001000100A90001004F
:10030000010001000100AC00AA0001000100010091
:100310000100AB00A8000100010001000100010084
:1003200001000100005C0100AE00010001000000BE
:100330000102E50101260103E501043130307C01B1
:1003400002E50101270103E50001012F010431301D
:10035000307C0101300000000000000000000000BF
:10036000000000000000000000007E0F00D4FFFF2E
:10037000FFC70000007800000000000000002A2BEA
:100380002800000000000000000000000000000045
:100390000029000000002C1E3420212224342627AE
:1003A000252E362D3738271E1F20212223242526CF
:1003B0003333362E37381F0405060708090A0B0C9D
:1003C0000D0E0F101112131415161718191A1B1CE5
:1003D0001D2F3130232D350405060708090A0B0CA3
:1003E0000D0E0F101112131415161718191A1B1CC5
:1003F0001D2F3130354C00010101010101010101C6
:1004000002020202020202020203030303030303C5
:100410000304040404040404050505050506060692
:100420000606070707070708080808090909090A4F
:100430000A0A0B0B0B0C0C0C0D0D0D0E0E0E0F0FF4
:100440000F10101111111212131314141515161682
:100450001717181819191A1A1B1B1C1D1D1E1E1FF1
:100460002020212222232424252626272829292A40
:100470002B2C2D2D2E2F3031323233343536373868
:10048000393A3B3C3D3E3F40414243444546474864
:10049000494A4C4D4E4F50515354555658595A5B3A
:1004A0005D5E5F616264656668696B6C6D6F7072DA
:1004B000737577787A7B7D7E8082838587888A8C46
:1004C0008E8F91939596989A9C9EA0A2A3A5A7A97A
:1004D000ABADAFB1B3B5B7BABCBEC0C2C4C6C9CB71
:1004E000CDCFD1D4D6D8DBDDDFE2E4E7E9EBEEF027
:1004F000F3F5F8FAFDFF0A00000000000306B20061
:10050000080001000000A800080002000200A0008E
:100510001400030057494E555342000000000000EC
:10052000000000008400040007002A004400650069
:10053000760069006300650049006E007400650084
:1005400072006600610063006500470055004900C5
:1005500044007300000050007B003900440042005A
:10056000370046003100460044002D0037004500AA
:10057000370041002D0034003000300038002D00DD
:1005800039003300360042002D00360042004100A1
:10059000360043003100390041003300300038009C
:1005A00063007D00000000001B0301636F6E66693D
:1005B000677572652E6572676F646F782D657A2E28
:1005C000636F6D0005010902A10185020901A10007
:1005D00005091901290515002501950575018102F7
:1005E0009501750381010501093009311581257FC8
:1005F00095027508810609381581257F95017508D2
:100600008106050C0A38021581257F950175088140
:1006100006C0C005010980A10185031A81002A8353
:1006200000160100260300950175108100C0050C1D
:100630000901A10185041A01002A9C021601002665
:100640009C02950175108100C005010906A1018574
:1006500005050719E029E7150025019508750181B1
:10066000020507190029EF1500250195F075018194
:100670000205081901290595057501910295017575
:10068000039101C005010906A101050719E029E749
:1006900015002501950875018102950175088101F4
:1006A0000507190029FF150026FF0095067508812A
:1006B0000005081901290595057501910295017537
:1006C000039101C009025200030100A0FA090400CD
:1006D000000103010100092111010001224000076E
:1006E00005810308000A0904010001030000000954
:1006F000211101000122C0000705820320000A0920
:1007000004020002FF000000070583034000050704
:100710000504034000051201100200000008EDFE70
:100720000713010001020301040330000000160357
:100730004500720067006F0064006F0078002000C1
:1007400045005A00000008035A0053004100000011
:1007500004030904050F3900021C100500DF60DDE9
:10076000D88945C74C9CD2659D9E648A9F00000332
:1007700006B20045001810050038B60834A909A0D3
:10078000478BFDA0768815B6650001420000047F06
:100790003F1F643214643214783C1E1E140A05FF95
:1007A000AA7F55402223252628292A2C2D2F303296
:1007B000333536383A3B3D3E4042434547494A4C43
:1007C0004E5051535557595A5C5E60626466686971
:1007D0006B6D6F71737577797B7D7F818385878979
:1007E0008A8C8E90929496989A9C9E9FA1A3A5A77E
:1007F000A8AAACAEAFB1B3B4B6B8B9BBBCBEBFC1AA
:10080000C2C3C5C6C7C9CACBCCCDCED0D1D2D2D334
:10081000D4D5D6D7D7D8D9D9DADADBDBDBDCDCDC48
:10082000DCDCDDDDDDDDDCDCDCDCDCDBDBDBDADA0B
:10083000D9D9D8D7D7D6D5D4D3D2D2D1D0CECDCC82
:10084000CBCAC9C7C6C5C3C2C1BFBEBCBBB9B8B697
:10085000B4B3B1AFAEACAAA8A7A5A3A19F9E9C9A22
:1008600098969492908E8C8A89878583817F7D7BF0
:1008700079777573716F6D6B6968666462605E5CD1
:100880005A5957555351504E4C4A49474543424097
:100890003E3D3B3A3836353332302F2D2C2A29282D
:1008A0002625232211241FBECFEFDAE0DEBFCDBF05
:1008B00012E0A0E0B1E0E6E8FAE502C005900D9292
:1008C000AA32B107D9F723E0AAE2B2E001C01D9233
:1008D000A63BB207E1F70E941E1A0C94412D0C941E
:1008E00000004F925F926F927F929F92AF92BF9261
:1008F000CF92DF92EF92FF920F931F93CF93DF93EC
:10090000CDB7DEB72A970FB6F894DEBF0FBECDBFC6
:10091000FC010081F18083819481892B39F01FEFE4
:10092000F11206C091E00F3F19F403C091E001C03D
:1009300090E090FD05C76F0185E0DE011196019002
:100940000D928A95E1F7F601228189819A8122230D
:1009500049F00E94C829182F682F89819A810E9426
:10096000422A03C00E94152A182F24E5129FF00185
:10097000112436E0F39EE00DF11D1124E00FF11D6E
:10098000EE0FFF1FE85CFE4F059114918091BD02B0
:10099000882319F08091BE0202C080E090E080FFC1
:1009A00015C01E82F6018281882311F081E101C009
:1009B00082E18F83F60180818887818189878EEF2C
:1009C0008A8765E0CE0106960E946526F60182813F
:1009D0000930FDE51F0709F040C0882309F494C0E1
:1009E0009091720281E0890F8770987F853020F4A2
:1009F000892B8093720202C09093720280917202DE
:100A000087702FEF829FC00111249595879595954A
:100A100087959927909389008093880090938B0005
:100A200080938A0090938D0080938C004091720295
:100A30005091730260917402709175028FE090E0A2
:100A40000E94A92B6091B9027091BA028091BB02F9
:100A50009091BC020E948E1057C00D303DE51307E7
:100A600089F148F40B30EDE51E07D9F00C30FDE5B7
:100A70001F07D9F049C00F302DE5120731F088F17A
:100A800000319DE5190731F03FC08823E9F189E481
:100A900093E004C08823C1F180E393E00E94F10F4A
:100AA00033C0882309F44CC629C0882309F448C6FA
:100AB0000E94630D81E00E94600D21E04FEF6FEF17
:100AC00086E90CC0882309F43BC60E94630D81E0CF
:100AD0000E94600D21E04FEF6FEF80ED0E943C25FA
:100AE0002FC6882309F42CC60E94630D81E00E9462
:100AF000600D21E04FEF6FEF8FE7F0CF81E001C095
:100B000088E10E94600D1CC6F6018281882319F1DC
:100B1000033EECE51E07C1F050F4013E2CE5120740
:100B200081F0023E3CE51307B1F481E010C0043EC1
:100B30008CE5180759F0053E9CE5190761F484E03F
:100B400006C010926E0205C082E001C083E080936F
:100B50006E020E943D0E17FF71C0F601828188234C
:100B600009F46CC08091A70380932A021092A70316
:100B700080916E02813071F048F08230C1F0843093
:100B8000E1F486EE0E94322288E115C082EE0E94D6
:100B9000A52113C083E00E941F2188E10E94A521A6
:100BA00088E10E943E2183E00E94142106C082EE6B
:100BB0000E94A52187E50E9432228FE39CE90197DC
:100BC000F1F700C000005801E894B7F82CE0E22EDD
:100BD000F12CC5010E2C02C0969587950A94E2F778
:100BE000282F2F7041F0822F90E02A3010F44D967C
:100BF00004C0069702C087E290E00E94322294E08F
:100C0000E91AF108ECEFEE16EFEFFE0611F780910E
:100C10006E02813039F040F0823031F0843051F48E
:100C200088E206C08CE204C082EE0E943E2102C02F
:100C30000E94322280912A028093A703033FFCE5A1
:100C40001F0729F180F4083D3CE51307C9F0093D71
:100C50008CE5180741F1073D9CE5190739F526E2B7
:100C600041EE61EE10C0053FECE51E07C1F098F0C3
:100C7000063F2CE51207D1F427E245EE66EE03C0ED
:100C800027E245EE65EEC6010E94D82559C526E249
:100C900041EE60EEF8CF27E245EE64EEF4CF26E2B7
:100CA00041EE62EEF0CF28E241E0ECCFF601928116
:100CB000992309F439C110922B020230FCE51F0779
:100CC00008F41CC106312CE5120738F098012A5FA0
:100CD0003C452730310508F011C10E94A7289093A8
:100CE0008502809384020F303CE5130709F4CFC0DE
:100CF00008F042C008309CE5190709F4A8C0F0F4D8
:100D00000430FCE51F0709F490C068F402303CE5AC
:100D1000130709F486C003301C4509F0DFC0809139
:100D200084028260D9C006309CE5190709F487C0A7
:100D300008F089C0809184028860CEC00B30FCE549
:100D40001F0709F495C068F409303CE5130709F45E
:100D500082C00A301C4509F0C1C0809184028860BD
:100D600080C00D309CE5190709F486C008F087C0E3
:100D7000809184028D7FB0C00A3FFCE51F0709F413
:100D800057C050F502313CE5130709F488C068F4F8
:100D900000319CE5190709F47EC001311C4509F0BA
:100DA0009DC0809184028F7B97C00431FCE51F07B2
:100DB00009F487C008F479C005311C4509F08EC0DC
:100DC0008091840282FB222720F991E0922790FBF8
:100DD00082F990FB83F980C00D3F8CE5180709F478
:100DE00052C058F40B3FECE51E0729F10C3F1C459F
:100DF00009F074C08091850260C00F3F2CE5120796
:100E000009F458C080F101151D4509F067C08091B3
:100E10008502982F909591708E7F892B90FB81F998
:100E20004DC080918402816057C08091840219C0B6
:100E3000809185021BC08091850282603FC08091B5
:100E40008402806149C080918402806245C08091A3
:100E50008402806441C00E94FF20809184028068E7
:100E60003BC0846039C0809185028260816026C069
:100E7000809184028E7F30C08091840219C080915D
:100E80008402877F29C0809185028D7F17C0809161
:100E900084028F7E21C0809184028F7D1DC00E94BC
:100EA000FF20809184028F7717C080918402877F12
:100EB0008B7F12C0809185028D7F8E7F809385020B
:100EC0000DC00E94FF208091840287FB222720F919
:100ED00091E0922790FB87F98093840260918402CD
:100EE0001091850284E090E00E94972B612F81E2AF
:100EF00090E00E94972B0E94FF2022C48091A703BC
:100F00000631FCE51F0709F58A7A91E009F490E0C3
:100F100090932C02882311F065E301C069E28DE40F
:100F200093E00E9472280EC006311C4509F0DAC019
:100F300080912C02882309F401C465E38DE493E0D9
:100F40000E944A280E948229FBC38272F801E25C57
:100F5000FC45E431F10508F070C0EA5AFF4F0C94EB
:100F6000012C8091370280FF1BC08E7F8093370257
:100F700060913702709138028091390290913A0263
:100F80000E94F10C10929F029FEFE0E7F2E0915077
:100F9000E040F040E1F700C000000E94A711D0C37C
:100FA0000E94630DCDC34BE65DE064E77DE02CC09D
:100FB00044E75DE06BE67DE027C049E25CE062E388
:100FC0007CE022C042E35CE069E27CE01DC041E1DC
:100FD0005CE06DE17CE018C04DE15CE061E17CE04B
:100FE00013C049EF5BE065E07CE00EC045E05CE0EB
:100FF00069EF7BE009C043E05DE064E17DE004C0AF
:1010000044E15DE063E07DE00E94E32499C365E094
:1010100082E00EC068E086E00BC06EE089E008C0A8
:1010200064E18FE005C067E185E102C062E289E129
:101030000E94D22485C383E264CD0E3D2CE51207C5
:1010400009F446C008303DE5130709F444C0011512
:101050001C4509F047C00E94FF209FEFE4E3FCE03D
:101060009150E040F040E1F700C00000F89481E0CA
:101070008093E00080E28093D8001092C9008FE155
:101080009EE40197F1F700C000001DBA10926800BD
:101090001CBC10BE1FBA10927A0010926E00109203
:1010A0006F0010927100109272001092C90010929D
:1010B000BC0014B817B81AB81DB810BA1092BC000A
:1010C00015B818B81BB81EB811BA0C94003F38C335
:1010D0000E94B82835C39091BF0281E08927809390
:1010E000BF022EC3F60100811181992349F0C80186
:1010F0000E94C829F82E682FC8010E94422A04C005
:10110000C8010E94152AF82EB8018F2D0E94430EA7
:101110008C01B82EF601E580E2949FE0E922F2808E
:10112000F1101092A6038091A403877079F0FF203C
:1011300069F080E2800F883048F082E00E94932AB4
:101140008091A4038770AA24A3948111A12C912ECD
:1011500092948FE09822892D90E08C30910508F0D0
:10116000CFC2FC01E659FF4F0C94012C812F807FE8
:101170001F70882311F01295107FFF20B9F0112302
:1011800009F448C280E2800F883010F0B11006C028
:101190008091A703182B1093A70305C08091A60385
:1011A000182B1093A6030E94822934C2802F0E941C
:1011B0003E21112309F4A4C2005E1095083010F0FE
:1011C000B11006C08091A70318231093A70305C090
:1011D0008091A60318231093A6030E94822990C22F
:1011E000812F807F1F70803211F01295107FBB20FD
:1011F00021F0F1E0BF16E1F028C0FF2081F08091DE
:10120000A803EE2051F001E0E01207C0182B1817D8
:1012100009F476C21093A80373C2812B10C0EE208C
:1012200021F021E0E21609F46BC20E947C291FC064
:10123000FF2041F031E03E1508F462C2812F0E9488
:1012400034215EC2E1105CC212C0FF2019F0EE2012
:10125000A9F3E0C1EE2059F0093309F0EDC18FEF99
:1012600097EEE3E081509040E040E1F7E3C1812F49
:101270000E94292145C2812F86958695837019F099
:10128000813059F03DC2FF2019F0C801937002C0AF
:1012900080E090E00E94B02439C2FF2019F0C8011C
:1012A000937002C080E090E00E949A242FC2FF2039
:1012B000F9F0053F51F0063F71F0043FA9F4809129
:1012C0002D0290912E0281600BC080912D02909191
:1012D0002E02826005C080912D0290912E028460C2
:1012E00090932E0280932D02802F0E9447271EC0CC
:1012F000053F51F0063F71F0043FA9F480912D02A3
:1013000090912E028E7F0BC080912D0290912E0223
:101310008D7F05C080912D0290912E028B7F90933E
:101320002E0280932D02802F0E947D260E940B2882
:10133000EDC1812F837009F069C0F110E5C1902FD4
:10134000929596959770990F990F802F8F70482ED0
:10135000512C612C712C092E04C0440C551C661CA8
:10136000771C0A94D2F704FF12C04FE050E060E00F
:1013700070E004C0440F551F661F771F9A95D2F77F
:10138000DB01CA0180959095A095B09503C080E0DF
:1013900090E0DC0116951695412F4370423019F10B
:1013A000C8F40091A9031091AA032091AB033091D6
:1013B000AC03413059F084299529A629B729BC01ED
:1013C000CD0160237123822393230AC0402A512A2E
:1013D000622A732ABC01CD016429752986299729BF
:1013E0000E94A71E91C184299529A629B729009199
:1013F000A9031091AA032091AB033091AC03BC0167
:10140000CD016027712782279327EACFFF2019F0AB
:10141000812F817001C08695882309F475C1902FB2
:10142000929596959770990F990F802F8F70482EEF
:10143000512C612C712C092E04C0440C551C661CC7
:10144000771C0A94D2F704FF12C04FE050E060E02E
:1014500070E004C0440F551F661F771F9A95D2F79E
:10146000DB01CA0180959095A095B09503C080E0FE
:1014700090E0DC0116951695412F43704230D9F06B
:1014800068F50091B9021091BA022091BB02309127
:10149000BC02413059F084299529A629B729BC01FD
:1014A000CD0160237123822393231EC0402A512A39
:1014B000622A732A13C084299529A629B729009185
:1014C000B9021091BA022091BB023091BC02BC015A
:1014D000CD01602771278227932706C0BC01CD016B
:1014E00064297529862997290E946A1E0DC11F70DB
:1014F000FF2039F0812F0E94AC2A802F0E943421D6
:1015000003C1802F0E942921812F0E946E2AFCC0D6
:10151000802FF2EFBF1609F43EC0FB1538F020EF24
:10152000B21661F031EFB31689F16FC093EFB916BF
:10153000C9F1E4EFBE1609F44CC067C0FF2009F101
:10154000E110DEC01F7181E090E0A0E0B0E0AC01EE
:10155000BD0104C0440F551F661F771F1A95D2F7AF
:101560008091B9029091BA02A091BB02B091BC02E5
:101570008A019B01082719272A273B27C901B8019F
:1015800025C021E02E1508F4BBC0DCCFFF2029F0D8
:10159000812F8F712CC0FF20D9F3812F8F710E9472
:1015A0006E2AAEC0FF2079F01F7181E090E0A0E0CC
:1015B000B0E0BC01CD0104C0660F771F881F991FE2
:1015C0001A95D2F703C060E070E0CB010E946A1E5A
:1015D00097C0FF2079F01F71812F0E94AC2A38E05C
:1015E000139FC001112483608093A403812F0E9464
:1015F000AC2A86C081E00E94932A81E08E1508F013
:101600007FC082E00E94932A7BC0FF2039F0EE2049
:1016100009F4BECF802F0E94A52172C0EE2009F4EC
:10162000BCCF893349F49FEFE7EEF3E09150E040FF
:10163000F040E1F700C00000802F0E943E2160C012
:1016400012EFB116E1F01B1538F020EFB21669F079
:1016500031EFB31611F12BC084EFB816C9F0B816EC
:1016600060F095EFB91671F022C0FF2009F44EC06A
:101670009091C10281E0892708C081E0F826F092AC
:10168000C10244C0F11042C081E08093C1023EC05B
:10169000F1103CC01092C10239C0FF2029F08091A6
:1016A000C002882329F329C0EE2011F32FC08091B6
:1016B000C002EE20C1F0882341F09091C10281E088
:1016C00089278093C1021092C002802FFF2019F059
:1016D0000E94A5211BC00E943E2186E0F6011192C6
:1016E0008A95E9F713C0882389F0F1100FC0909113
:1016F000C10281E089278093C1021092C00206C016
:1017000088EF890D843010F40E94C624AA20C1F00D
:101710008091A40380FD14C0F60112828595859501
:1017200085950E94AC2AC6010E9471048091A40391
:101730008595859585950E946E2A02C069E2FECB4B
:101740002A960FB6F894DEBF0FBECDBFDF91CF91C2
:101750001F910F91FF90EF90DF90CF90BF90AF90CF
:101760009F907F906F905F904F900895909184022A
:1017700092FF0DC0282F2871283019F4877F8460CC
:1017800006C0282F2471243011F48B7F886093FFCA
:101790000DC0282F2871283119F4877E846106C076
:1017A000282F2471243111F48B7E886120918502C9
:1017B00020FF0DC0382F3871383019F4877F8160D1
:1017C00006C0382F3171313011F48E7F886021FFCF
:1017D0000DC0282F2871283119F4877E816106C039
:1017E000282F2171213111F48E7E886194FD877E2E
:1017F0000895E7E3F2E043812CE0421B08F440E067
:1018000021E0628181810C943C25E7E3F2E0438191
:101810002CE0420F08F44FEF21E0628181810C94AB
:101820003C25E7E3F2E062812FEF621B08F460E001
:1018300021E0438181810C943C25E7E3F2E0628161
:101840002FEF620F08F46FEF21E0438181810C9448
:101850003C25E7E3F2E0818121E0438162818C5005
:101860000C943C25E7E3F2E0818121E04381628131
:10187000845F0C943C25CF93E82F873080F58091CE
:10188000070190910801892B09F047C0CE2F64E62B
:1018900070E080E40E94D32A9093080180930701AE
:1018A000892BD1F464E670E082E10E942A2B9093A8
:1018B000080180930701892B79F481E090E001C051
:1018C000880FCA95EAF764E670E080950E942A2B9B
:1018D0009093080180930701CF910C947F2B90E0A7
:1018E000FC013797E730F105C0F4EA58FF4F0C943C
:1018F000012C209A289811C0219A29980EC0229A6A
:101900002A980BC0239A2B9808C0529A5A9805C05F
:10191000539A5B9802C03E9A4698CF910895CF9310
:10192000873008F03FC08091070190910801892B12
:1019300009F041C064E670E080E40E94D32A9093ED
:10194000080180930701892B11F0C0E027C064E6ED
:1019500070E083E10E942A2B909308018093070195
:10196000892B99F764E670E081E40E94D32A909372
:10197000080180930701892B41F784E690E00E94DB
:101980005A2B97FF05C09093080180930701DDCF84
:10199000C82FC09510920801109207010E947F2B5A
:1019A0008C2F0AC09FB18FB1807F869586959370EA
:1019B000892B809501C080E0CF91089580913702F6
:1019C000282F269530E02115310519F481708260A9
:1019D00005C02532310524F0817088648093370278
:1019E0000895CF92DF92EF92FF926B017C010E94EB
:1019F000DE0CB701A60188E090E0FF90EF90DF9049
:101A0000CF900C94A92B80913B02882319F0815030
:101A100080933B02609137027091380280913902C5
:101A200090913A020C94F10C80913B02833018F4AF
:101A30008F5F80933B0260913702709138028091F2
:101A4000390290913A020C94F10C9091370290FF78
:101A500036C09170811102C0926006C0853210F0CC
:101A6000986402C0880F982B90933702662351F038
:101A700060913702709138028091390290913A0258
:101A80000E94F10C60913702669570E04BE050E0E7
:101A900083E191E00E94342D892B19F010929F026E
:101AA00002C00E944C2681E080939B0220E040917E
:101AB0003A0260913902809138020C943C250895D5
:101AC00061E00C94250DE7E3F2E080818160808382
:101AD00086950C94600D809137028695815009F4AB
:101AE00084E261E00C94250D8091370286958F5F2A
:101AF000853208F081E061E00C94250DE7E3F2E027
:101B000083E0808311828FEF8283838314826081DC
:101B10007181828193810C94F10CBF92CF92DF92FC
:101B2000EF92FF920F931F93CF93DF93E82EF62E41
:101B3000E901E42FF0E0611106C0EA50FC4F849106
:101B4000B82EE82F71C0262F30E0EA50FC4FE49108
:101B5000FE2FCE2ED12C46E0849FC00111240FEF22
:101B600010E0B8010E94D92B4BEA4603C001479F01
:101B7000900D11248E0D911D8E0D911D982F990F92
:101B8000890FD801A21BB30BAC9DA001AD9D500DD8
:101B9000BC9D500D1124B52EF89ED0011124AB2F01
:101BA000BB277801EA1AFB0AEC9CD001ED9CB00D32
:101BB000FC9CB00D11247801E81AF108E29EC001E6
:101BC000E39E900DF29E900D1124892F9927081BFA
:101BD000190B0C9D90010D9D300D1C9D300D112495
:101BE000832F6230710591F048F461157105E1F0C1
:101BF00061307105B9F48E2FEB2F16C0643071057A
:101C000069F040F06630710579F00CC08E2FE52F39
:101C1000B32E0AC0E52FBF2E8B2F06C0852FBE2EF8
:101C2000E32F02C0852FBB2EE9838883BA821B82F3
:101C3000DF91CF911F910F91FF90EF90DF90CF90A8
:101C4000BF900895CF93DF9300D000D0CDB7DEB71B
:101C50009091370290FF0AC09E012F5F3F4F0E9474
:101C60008D0D4B8169818A810E94E9240F900F902C
:101C70000F900F90DF91CF91089560916E028CE0EC
:101C800090E00C94972BCF93DF9324E5829FC001C3
:101C90001124FC0146E0749FE00DF11D1124E60FB4
:101CA000F11DEE0FFF1FE85CFE4FC591D491CE01F0
:101CB000C238D10569F1B0F4C133D10509F475C05A
:101CC00048F4C932D10509F469C0CA32D10509F412
:101CD00073C085C0C533D10509F459C0C933D105D6
:101CE000B9F07DC0C33ED10571F138F4C03ED105D5
:101CF000B1F0C23ED10511F172C0C63ED105B9F1B5
:101D0000C73ED105C9F1C43ED10509F068C024C061
:101D10002091840220FD5DC021FD5BC060C0209148
:101D2000840220FD50C02091850220FF57C1809180
:101D3000840284FD51C183EE90E050C12091840261
:101D400022FF4CC1F4CF8091840282FD3FC080917C
:101D5000850280FD3EC0EBCF2091850221FF3EC170
:101D60008091840284FD38C187EE90E037C12091D4
:101D7000840223FF33C1F4CF8091840283FD2CC001
:101D80008091850281FFECCF84EE90E027C1209105
:101D9000840225FF23C189E290E020C120918402C2
:101DA00025FF1CC185E390E019C12091840226FF24
:101DB00015C18AE290E012C12091840226FF0EC173
:101DC00081E390E00BC189E390E008C182EE90E0EE
:101DD00005C180EE90E002C186EE90E0FFC0C11523
:101DE00052E5D50708F075C0C11521E5D20728F0E6
:101DF0009C2F8827816F906AF1C0C83ED10570F58D
:101E0000C03ED10508F0EAC0C83AD105B8F4C53AD9
:101E1000D10550F08C2F855AC82FD0E0C45DDE4F1D
:101E2000888190E09064DAC0C130D10509F4D6C051
:101E300008F4D2C0249708F4CFC0D0C0CF3BD1055E
:101E400008F0CAC08C2F885AC82FD0E0CC0FDD1FF5
:101E5000C15DDE4F888199819464C0C0C11540E2A4
:101E6000D40760F4C11551E0D50708F0B7C0C03FF2
:101E7000D10508F4B1C0CE019065B0C0C11580E4B1
:101E8000D80708F4A9C0C11520E5D20720F4CE0177
:101E90009F70906AA3C0CE01F4E096958795FA955D
:101EA000E1F7282F23703C2F337081E090E002C0CF
:101EB000880F991F3A95E2F79C68922B2C2F2F7070
:101EC0002695269550E2259F90011124822B932B75
:101ED00085C0C11546E5D40708F03FC0C11555E5DA
:101EE000D50748F08C2F0E94B60B8F7190E0982F89
:101EF0008827906273C0C11584E5D80728F09C2F0D
:101F00008827846F906A6AC09E01237033279C2FB4
:101F100096959695C115D34580F441E050E002C0F6
:101F2000440F551F2A95E2F780E2989F90011124F3
:101F3000CA01822B932B9C6851C041E050E002C043
:101F4000440F551F2A95E2F780E2989F90011124D3
:101F5000CA01822B932B9A6841C0C1155AE5D50757
:101F600078F5C11589E5D80710F18C2F8F700E9484
:101F7000B60B9E0194E0369527959A95E1F72F7060
:101F800030E0322F22273069A901482B0EC090562D
:101F90008115904208F58D2F8F710E94B60B9E011E
:101FA000332730628F71A901582BCA0117C0C115A0
:101FB00028E5D20788F09C2F8827806F906A0EC092
:101FC000C1154BE5D40740F0CE01C1155CE5D5073E
:101FD000F0F69927906602C080E090E0DF91CF9103
:101FE0000895CF92DF92EF92FF920F931F93CF93BA
:101FF000DF93EC018AE0C82EFE018491882309F466
:1020000084C0813009F041C031968491813041F41F
:102010002296FE011491812F0E94A521812F0DC0CF
:10202000823031F42296FE0184910E94A5216BC07A
:10203000833031F42296FE0184910E943E2163C0D8
:10204000843009F05FC02296FE01249180E090E088
:1020500030E0205331092A30310560F4C89EA001D8
:10206000C99E500D1124C901840F951F2196FE01B0
:102070002491EECF009709F446C0EFE9FFE03197D5
:10208000F1F700C000000197F5CFE82FF0E0EA5823
:10209000FC4FD490082F06950695069510E0F801A0
:1020A000EA59FC4FE4908770F12C082E02C0F59499
:1020B000E7940A94E2F7F1E0EF22FF24F801EA5AEC
:1020C000FC4F049110E002C0159507958A95E2F740
:1020D00001701127E114F10419F081EE0E94A5218D
:1020E0000115110519F086EE0E94A5218D2D0E9483
:1020F0003222012B19F086EE0E943E21EF2819F0C2
:1021000081EE9BCFEF01219677CFDF91CF911F9189
:102110000F91FF90EF90DF90CF900895CF92DF92D4
:10212000EF92FF926B017C010E942C2956985E98D9
:1021300025982D9826982E9827982F9890E0FC01A6
:102140003197E730F105A8F4E358FF4F0C94012CC8
:10215000259A2D9A0EC0259A2D9A269A2E9A09C054
:10216000259A2D9A04C0259A2D9A269A2E9A279A56
:102170002F9AC701B601FF90EF90DF90CF9008959E
:1021800080E290E0909308018093070180913502EE
:1021900081110EC00E94CD2A81E0809335022FEF7D
:1021A00083ED90E3215080409040E1F700C00000B3
:1021B00064E670E080E40E94D32A90930801809343
:1021C0000701892B09F04EC064E670E080E00E94B0
:1021D0002A2B9093080180930701892B09F042C0B4
:1021E00064E670E080E00E942A2B909308018093BF
:1021F0000701892BB9F564E670E08FE30E942A2B72
:102200009093080180930701892B61F50E947F2B31
:1022100064E670E080E40E94D32A909308018093E2
:102220000701892BF9F464E670E08CE00E942A2B08
:102230009093080180930701892BA1F464E670E074
:1022400080E00E942A2B9093080180930701892B3C
:1022500049F464E670E08FE30E942A2B9093080112
:10226000809307010E947F2B809107010895CF93EF
:10227000DF9356985E9825982D9826982E98279843
:102280002F98C8E8D0E08FEF90E099838883AAE880
:10229000B0E011969C938E93ECE8F0E091838083FC
:1022A000259A2D9A2FEF80E792E0215080409040B0
:1022B000E1F700C00000269A2E9A2FEF80E792E007
:1022C000215080409040E1F700C00000279A2F9AEB
:1022D0002FEF80E792E0215080409040E1F700C06E
:1022E000000025982D982FEF80E792E02150804044
:1022F0009040E1F700C0000026982E982FEF80E76D
:1023000092E0215080409040E1F700C00000279803
:102310002F988091720287702FEF829FC001112445
:102320009595879595958795992799838883119693
:102330009C938E939183808356985E9825982D98D0
:1023400026982E9827982F98DF91CF910895EF9295
:10235000FF920F931F93CF93DF938091370280FFFB
:1023600008C00DEF12E089E3E82E83E0F82EF801B3
:102370000CC0EDEFF2E011821082128213823496CB
:1023800083E0E933F807B9F7ECCF928120813181FE
:10239000892F291708F4822F381708F4832F838395
:1023A000381B3183281B2083981B92833496EE16AA
:1023B000FF0659F70E94CD2A64E670E084E80E9487
:1023C000D32ACDEFD2E064E670E088810E942A2B08
:1023D00064E670E089810E942A2B64E670E08A81BD
:1023E0000E942A2B64E670E08B810E942A2B24969F
:1023F000EC16FD0641F70E947F2B579A8BB18F7721
:102400009BB190682FB7F894E016F10699F0F801A7
:1024100031918F0148E09BB9000000C037FF8BB9B4
:10242000330F000000C000C000C08BB900C04A9547
:1024300091F7EACF2FBF8FE391E00197F1F700C04A
:102440000000DF91CF911F910F91FF90EF900895C1
:1024500084B1807F84B985B1807F85B98AB1837F5B
:102460008AB98BB1837F8BB93E984698089580B323
:102470008C7080BB81B3836F81BB0895BF92CF9274
:10248000DF92EF92FF920F931F93CF93DF93809190
:10249000070190910801892B91F0809134028F5FA0
:1024A0008093340281110BC00E94C01090E0909381
:1024B000080180930701892B11F40E94371196E7D8
:1024C000E92E92E0F92E8701C0E0B12C87E0C82EFA
:1024D000CC0E8C2F0E943B0C8C2D0E943B0C8C2F21
:1024E0000E948F0CF8019081891721F08083DD24F0
:1024F000D39401C0D12C8C2D0E948F0CF8019781B0
:10250000891719F0878381E001C080E0D82ABD28AF
:102510000E942812CF5F0F5F1F4FC730B9F60E948D
:10252000FF276AEF70E00E94D92B9C01682F8091F1
:1025300030028823E9F110923002E0916C02F091B0
:102540006D02DF011E9690E07BEF0AEF10E08081C4
:102550008B3FA9F0482F50E0681728F06901C41A92
:10256000D50AA60106C0E801C41BD50BAE01420F77
:10257000531F4E31510514F0708301C091E0319624
:10258000EA17FB0721F790933002B11002C09111B6
:1025900011C010922F02E0916C02F0916D029091A7
:1025A0003002AAE8B2E0AF01425F5F4F80E00FC0A7
:1025B000B110EFCF80912F028111EBCF2091BF029C
:1025C0008091320290913302211119C057C0E70166
:1025D00029917E013C91321741F030813B3F21F43B
:1025E00060832C9391E001C081E031961196E4174D
:1025F000F50769F79093300280932F02DFCF892B84
:1026000031F425982D9826982E9827982F98809108
:102610003202909133029170892B79F480913102CA
:10262000882319F026982E9802C0269A2E9A909107
:10263000310281E0892780933102809132029091AA
:1026400033028130984780F01092BF026091B90246
:102650007091BA028091BB029091BC020E948E10D0
:102660001092330210923202809132029091330222
:102670000196909333028093320210C0892B71F03F
:1026800010923302109232026091B9027091BA0234
:102690008091BB029091BC020E948E108B2DDF9125
:1026A000CF911F910F91FF90EF90DF90CF90BF904F
:1026B00008958091640287FF11C08091E80082FD37
:1026C00005C0809162028111F8CF11C08091E800AD
:1026D0008B770BC080916202882349F08091E800DB
:1026E00080FFF8CF8091E8008E778093E80008950E
:1026F000982F973068F59093E900981739F070910A
:10270000EC002091ED005091F00003C0242F762FB3
:1027100050E021FD02C09F5FECCF3091EB003E7F87
:102720003093EB003091ED003D7F3093ED00309120
:10273000EB0031603093EB007093EC002093ED00E0
:102740005093F0002091EE0027FDE5CF80E0089542
:102750008F708093E90081E0089520916A023091A2
:102760006B022617370748F06115710539F420917F
:10277000E8002E772093E80001C0B901FC0120E0B9
:102780006115710591F180916202882309F440C0BE
:10279000853009F43FC08091E80083FD3DC0809101
:1027A000E80082FD2FC08091E80080FFE9CF2091F2
:1027B000F3008091F20090E0922B6115710559F0C1
:1027C0008830910540F424912093F10031966150B6
:1027D00071090196F2CF21E0089709F020E080917D
:1027E000E8008E778093E800CBCF2111CCCF0AC0D0
:1027F00080916202882361F0853061F08091E80069
:1028000083FD0AC08091E80082FFF2CF80E0089546
:1028100082E0089583E0089581E0089520916A029E
:1028200030916B022617370748F06115710539F4AE
:102830002091E8002E772093E80001C0B901FC0147
:1028400020E06115710579F1809162028823F1F130
:102850008530F1F18091E80083FD3CC08091E80073
:1028600082FD2EC08091E80080FFEBCF2091F30025
:102870008091F20090E0922B6115710551F0883043
:10288000910538F421912093F1006150710901966E
:10289000F3CF21E0089709F020E08091E8008E77DF
:1028A0008093E800CECF2111CFCF0AC08091620281
:1028B000882361F0853061F08091E80083FD0AC0D3
:1028C0008091E80082FFF2CF80E0089582E00895D1
:1028D00083E0089581E008951F93CF93DF93CDB7F0
:1028E000DEB7AA970FB6F894DEBF0FBECDBFE4E601
:1028F000F2E08091F100819322E0EC36F207C9F713
:10290000809165028930B9F150F4823009F4A5C094
:10291000833009F45FC0813009F0EEC00CC08B3009
:1029200009F470C008F488C0823409F4AEC085345C
:1029300009F4C5C0E1C080916402813A09F0DCC0AD
:102940008091E800877F8093E800809168029091F1
:102950006902892B21F460E280E492E003C060E028
:1029600080E090E070E00E940E148091E8008B7788
:102970008093E800C1C080916402813209F0BCC03C
:102980008091680290916902029708F0B5C0809129
:10299000E800877F8093E8008091E80082FD05C011
:1029A000809162028111F8CFA7C02091F30080913D
:1029B000F20090E0922B029729F48091F1008B7F36
:1029C000813021F48091F10080933F028091E800F2
:1029D0008B7758C080916402813A09F08DC0809154
:1029E000680290916902892B09F086C08091E80005
:1029F000877F8093E8008091E80080FFFCCF809182
:102A000006013BC080916402813209F075C080915B
:102A1000680290916902892B09F06EC08091E800EC
:102A2000877F8093E8000E9459138091660280930B
:102A300006010E94FF2060C080916402813209F08B
:102A40005BC08091E800877F8093E8000E94591363
:102A50008091670280933E024FC080916402813A68
:102A600009F04AC08091E800877F8093E800809158
:102A7000E80080FFFCCF80913E028093F1008091BE
:102A8000E8008E778093E8002FC080916402803C3C
:102A900099F58091680290916902029741F58091C1
:102AA000660290916702892B11F58091E800877F7B
:102AB0008093E8006BE170E088EA95E013C08091B4
:102AC0006402803CC9F48091680290916902079782
:102AD00071F48091E800877F8093E80062EB70E0FA
:102AE00086EF94E00E94AD130E94591305C08091B7
:102AF000EB0080628093EB008091E80083FFA4C12B
:102B00008091640290916502492F50E04A3051054E
:102B100008F09AC1FA01EC57FF4F0C94012C803851
:102B200021F0823809F090C108C080916002909134
:102B30006102992389F082600FC0809168028F70D2
:102B4000873008F081C18093E9008091EB0085FB1C
:102B5000882780F91092E9009091E800977F909380
:102B6000E8008093F1001092F10033C1282F2D7FEF
:102B700009F06AC1882319F0823061F065C1809143
:102B80006602813009F060C1933009F080E08093E3
:102B900061022EC08091660281112AC08091680274
:102BA0008F702FEF280F263008F04EC18093E90078
:102BB0002091EB0020FF1CC0933021F48091EB00AA
:102BC000806214C09091EB0090619093EB0021E043
:102BD00030E0A90102C0440F551F8A95E2F74093E7
:102BE000EA001092EA008091EB0088608093EB008D
:102BF0001092E9008091E800877FEEC0811124C126
:102C0000109166021F778091E3008078812B80937A
:102C1000E3008091E800877F8093E8000E945913C9
:102C20008091E80080FFFCCF8091E3008068809372
:102C3000E300111102C082E001C083E080936202D0
:102C400003C18058823008F0FFC0809166029091E5
:102C500067028C3D53E0950779F583E08A838AE229
:102C600089834FB7F894DE01139620E03EE051E2ED
:102C7000E32FF0E050935700E49120FF03C0E2956A
:102C8000EF703F5FEF708E2F90E0EA3010F0C79644
:102C900001C0C0968D939D932F5F243149F74FBF9C
:102CA0008091E800877F8093E8006AE270E0CE01BF
:102CB00001960E940E147BC04091680250916902F7
:102CC000292F33272330310511F168F421303105E4
:102CD00009F4C9C02230310509F0B6C062E570E0E0
:102CE00084EC96E05DC02132310509F43BC022320C
:102CF000310509F444C02F30310509F0A5C0E6E5DF
:102D0000F7E0E4916E2F70E084E597E045C09927E5
:102D100081309105B9F070F082309105D9F00397B8
:102D200009F092C0E8E2F7E0E4916E2F70E088E2EB
:102D300097E032C0E0E5F7E0E4916E2F70E080E5C7
:102D400097E02AC0E6E4F7E0E4916E2F70E086E4B5
:102D500097E022C0EEE2F7E0E4916E2F70E08EE2A1
:102D600097E01AC04115510509F482C04130510560
:102D700009F06AC069E070E08FEE96E011C041157D
:102D8000510509F47AC04130510509F05DC060EC8D
:102D900070E084EC95E004C06115710509F454C03D
:102DA0002091E800277F2093E8000E94AD138091D6
:102DB000E8008B778093E80047C0803809F044C072
:102DC0008091E800877F8093E80080916302809380
:102DD000F1008091E8008E778093E8000E945913FB
:102DE00033C0811131C080916602909167029927AA
:102DF000029754F58091E800877F8093E800109156
:102E00006602109363020E945913111106C080914B
:102E1000E30087FD02C081E001C084E0809362028C
:102E200042E061EC81E00E94781342E261EC82E0D2
:102E30000E94781342E361EC83E00E94781342E33E
:102E400060EC84E00E9478138091E80083FF1AC050
:102E50008091E800877F8093E8008091EB0080629A
:102E60008093EB000FC062E170E086E197E098CFBD
:102E700069E070E086ED96E093CF60E470E084E86E
:102E800096E08ECFAA960FB6F894DEBF0FBECDBFE8
:102E9000DF91CF911F9108951F920F920FB60F925D
:102EA00011242F933F934F935F936F937F938F934F
:102EB0009F93AF93BF93CF93DF93EF93FF93C09113
:102EC000E900CF708091EC00D82FD17080FDD0E860
:102ED0001092E9008091F000877F8093F000789451
:102EE0000E946C141092E9008091F0008860809339
:102EF000F000CD2BCF70C093E900FF91EF91DF91EF
:102F0000CF91BF91AF919F918F917F916F915F9181
:102F10004F913F912F910F900FBE0F901F901895DA
:102F2000E8EDF0E080818E7F80831092E2001092C5
:102F3000DA001092E100A0EEB0E08C9181608C93F9
:102F400080818F77808319BCA7EDB0E08C918E7F54
:102F50008C9380818F7E8083109236020895CF9269
:102F6000DF92EF92FF920F931F93CF93DF93C8ED01
:102F7000D0E088818F7E8883E7EDF0E080818160FA
:102F8000808384E082BF81E08093360288818E7FD7
:102F9000888302EE10E0F80110821092DA0081EED0
:102FA000C82ED12CF601108288818F778883888182
:102FB0008068888388818F7D888319BC1092620223
:102FC00010926302109261021092600290EEE92E5C
:102FD000F12CF70180818B7F8083888181608883D9
:102FE00042E060E080E00E947813F60180818E7FED
:102FF0008083F80180818160808380818860808304
:10300000F70180818E7F8083888180618883DF9152
:10301000CF911F910F91FF90EF90DF90CF90089587
:103020001F920F920FB60F9211242F933F934F933D
:103030005F936F937F938F939F93AF93BF93EF9320
:10304000FF938091E10082FF09C08091E20082FF3E
:1030500005C08091E1008B7F8093E1008091DA00D0
:1030600080FF2AC08091D80080FF26C08091DA00BE
:103070008E7F8093DA008091D90080FF18C080E1B4
:1030800089BD82E189BD09B400FEFDCF81E0809356
:1030900062028091360281110FC00E9490170E9437
:1030A000AF178091E20084608093E20005C019BCF4
:1030B00010926202109236028091E10080FF17C0E8
:1030C0008091E20080FF13C08091E2008E7F8093A8
:1030D000E2008091E20080618093E2008091D8005C
:1030E00080628093D80019BC85E080936202809151
:1030F000E10084FF43C08091E20084FF3FC080E193
:1031000089BD82E189BD09B400FEFDCF8091D80060
:103110008F7D8093D8008091E1008F7E8093E100C5
:103120008091E2008F7E8093E2008091E2008160D6
:103130008093E20080916302882311F084E007C04D
:103140008091E30087FD02C081E001C083E08093AD
:1031500062020E94FF200E94C62410923D028091CC
:103160003C02882349F080913702816080933702C6
:1031700060E086950E94250D0E944C268091E1001A
:1031800083FF27C08091E20083FF23C08091E1008C
:10319000877F8093E10082E0809362021092630255
:1031A0008091E1008E7F8093E1008091E2008E7F2C
:1031B0008093E2008091E20080618093E20042E02F
:1031C00060E080E00E9478138091F0008860809336
:1031D000F000FF91EF91BF91AF919F918F917F91FF
:1031E0006F915F914F913F912F910F900FBE0F9074
:1031F0001F9018952091E4003091E50095E64091EC
:10320000EC00842F817040FF23C08091E80080FD96
:103210001DC080916202882399F0853099F08091D9
:10322000EB0085FD11C04091E4005091E5002417AA
:10323000350729F3915011F09A01E1CF84E0089508
:1032400082E0089583E0089581E0089580E0089584
:103250004091E80042FFDDCF0895EF92FF920F9377
:103260001F93CF93DF937C018B010E94FA18811189
:1032700019C0E70101151105A1F08091E80085FD55
:103280000AC08091E8008E778093E8000E94FA18C7
:10329000882381F307C089918093F10001501109BF
:1032A000E9CF80E0DF91CF911F910F91FF90EF90D8
:1032B000089580916202843011F081E0089582E0E7
:1032C0000895CF93DF9300D01F92CDB7DEB79091D2
:1032D0006202943019F589837B836A8382E080934C
:1032E000E9008FEF9091E800815095FD06C095EDC3
:1032F0009A95F1F700008111F5CF8091E80085FFE4
:103300000DC040E050E063E070E0CE0101960E9405
:103310002D198091E8008E778093E8000F900F9030
:103320000F90DF91CF910895CF93DF93EC010E942E
:103330005919823011F0843031F4BE0184E0DF91FC
:10334000CF910C946119DF91CF910895BC01605821
:10335000710983E00C946119CF93DF93EC010E9413
:103360005919823011F08430F9F482E08093E90039
:103370008FEF9091E800815095FD06C095ED9A95EC
:10338000F1F700008111F5CF8091E80085FF0CC0B6
:1033900040E050E066E070E0CE010E942D1980917F
:1033A000E8008E778093E800DF91CF910895CF9366
:1033B000DF93EC010E945919823011F08430D9F565
:1033C00080910601882339F08091840287FF03C031
:1033D00060E282E002C068E081E08093E9008FEF64
:1033E0009091E800815095FD06C095ED9A95F1F712
:1033F00000008111F5CF8091E80085FF1CC080910D
:103400000601811105C040E050E068E070E003C0B3
:1034100070E040E050E0CE010E942D198091E8005C
:103420008E778093E80080E2FE01A0E4B2E0019094
:103430000D928A95E1F7DF91CF910895CF93DF93B5
:10344000CDB7DEB7C955D1090FB6F894DEBF0FBEB0
:10345000CDBF84B7877F84BF0FB6F894A8958091BD
:103460006000886180936000109260000FBE90E061
:1034700080E80FB6F89480936100909361000FBECE
:1034800085B7806885BF85B7806885BF0E94901723
:103490000E94AF178091E20084608093E2007894EC
:1034A000809162028823A1F01091E9001F70909131
:1034B000EC00892F817090FD80E8182B1092E900B4
:1034C0008091E80083FD0E946C141F701093E90046
:1034D00082E084BD93E095BD9AEF97BD80936E0026
:1034E0000E94C01090E090930801809307010E9411
:1034F00028120E943712A6E7B2E0EAE8F2E0119241
:103500001D9222E0E839F207D1F78EE090E00E94A8
:10351000132C80936C0290936D02FC010E962BEF9E
:1035200021938E179F07E1F780E090E00E94912B96
:103530008F3E9E4F11F00E94B8288CE090E00E94D0
:10354000832B90E0A0E0B0E080936E0290936F0236
:10355000A0937002B093710289EA8093800089E0A1
:103560008093810024982C983F988AB18F7C8AB9E7
:103570006E98479A8BB180638BB9769A8FE090E012
:103580000E948B2B6093720270937302809374027B
:103590009093750267704FEF649FB0011124759589
:1035A0006795759567957727709389006093880074
:1035B00070938B0060938A0070938D0060938C00F1
:1035C0000E94371180E090E00E94912B8F3E9E4F29
:1035D00011F00E94B82882E090E00E94832B809333
:1035E000AA020E94A728909385028093840283E018
:1035F00090E00E94832B682F70E080E090E00E94B2
:10360000A71E80918602811136C080E090E00E9462
:10361000912B8F3E9E4F21F00E94B8280E947E0D74
:1036200088E090E00E948B2B609337027093380201
:103630008093390290933A026E7F71F40E947E0D5E
:1036400088E090E00E948B2B6093370270933802E1
:103650008093390290933A020E94DE0C10929F02EE
:103660008091370280FF04C060E086950E94250D9E
:1036700081E0809386026091B9027091BA028091D4
:10368000BB029091BC020E948E1089E091E0909361
:10369000880280938702F1E4EF2EF12CEC0EFD1EE0
:1036A00022E0E20EF11CADE8CA2EA7E0DA2E8091EE
:1036B0006202853009F069C080916202843009F4A9
:1036C00041C01092890220E488E190E00FB6F8949E
:1036D000A895809360000FBE2093600010929F0217
:1036E00080913D02811117C081E080933D0280915D
:1036F0003702982F917090933C028E7F809337020F
:103700003FEF40E782E0315040408040E1F700C0A9
:1037100000000E94A71183B7817F846083BF83B7B5
:10372000816083BF7894889583B78E7F83BF0FB6FF
:10373000F894A89580916000886180936000109251
:1037400060000FBE80916102882309F4B0CF0E940F
:10375000C01090E090930801809307010E94281206
:103760000E943712EAE8F2E0119292E0E839F90794
:10377000D9F70E943E12EAE8F2E08191811141C23C
:1037800022E0E839F207C9F792CF0E943E12EBEA35
:10379000F2E0AAE8B2E000E010E0302F2D91919124
:1037A0009227A1F180E0BB24B3944B2D492351F122
:1037B00061968FAF619762963FAF62972B2181E050
:1037C00009F480E063968FAF63970E94FF278160C2
:1037D000782F65969FAF8EAF659761964FAD6197D5
:1037E00062965FAD629763966FAD639765968FAD96
:1037F00065970E94BF23F801E555FD4F8081B826EB
:10380000B0822AC08F5FBB0C863079F60F5F1F4FE6
:103810000E30110509F0C1CF8FEF66968FAF669716
:1038200067968FAF679768961FAE68970E94FF27CD
:103830008160782F6A969FAF8EAF6A9766964FAD7C
:10384000669767965FAD679768966FAD68976A965B
:103850008FAD6A970E94BF2380919F02882309F44D
:1038600099C080919E02E0913702E695E81BE093B3
:103870009A02823059F4F0E0E556F84FE4910E2FA9
:1038800010E0EBEAAE2EE3E2BE2E58C0863059F4CB
:10389000F0E0E856F84FE4910E2F10E07BE9A72EF8
:1038A00073E2B72E4BC0893061F4E695F0E0EB5639
:1038B000F84FE4910E2F10E066E4A62E62E2B62ED9
:1038C0003DC08F3061F4E695F0E0EE56F84FE4919C
:1038D0000E2F10E05DE2A52E53E2B52E2FC08531EC
:1038E00059F4F0E0E157F84FE4910E2F10E04DED60
:1038F000A42E42E2B42E22C0883199F0833241F4E2
:10390000F601059114913BEFA32E34E2B32E16C0BD
:10391000843271F404EF11E020E7A22E22E2B22EED
:103920000DC008EE13E09AEAA92E92E2B92E06C065
:1039300000ED17E085E4A82E82E2B82E80919B026C
:10394000882389F010929B020E94FF2798012095FE
:103950003095820F931F9093990280939802109252
:103960009D0210929C0280919802909199020E946F
:10397000D5278017910770F0E0919802F091990295
:103980000E0F1F1F109399020093980288E992E08E
:10399000F50109958091A7029091A8020E94D52770
:1039A0009C019091A602992321F02431310508F45D
:1039B00078C08091A2021091A30281110BC0111155
:1039C00041C12091A40221113DC12091A5022111E4
:1039D00039C167C09F3F19F09F5F9093A6021816E8
:1039E00024F40E9424278093A2028091A20287FFE0
:1039F00005C00E94242781958093A202111624F409
:103A00000E9424278093A3028091A30287FF05C010
:103A10000E94242781958093A3023091A202332330
:103A2000E1F02091A3022223C1F045EB3403C00151
:103A30001124992319F09093A20203C081E080938E
:103A4000A20235EB2303C0011124992319F09093AE
:103A5000A30203C081E08093A3028091A402181600
:103A600024F40E9402278093A4028091A40287FF7D
:103A700005C00E94022781958093A4028091A5022F
:103A8000181624F40E9402278093A5028091A502B3
:103A900087FF05C00E94022781958093A5020E949E
:103AA0000B280E94C6249091A902891721F00E9438
:103AB000C6248093A90280916202843009F0F7CD78
:103AC0008093E9008091E80082FFF1CD8091E800C9
:103AD00085FF21C00E94FA1881111BC000E410E08C
:103AE000CE0101965C0108C08091F100F50181933F
:103AF0005F010150110969F08091E80085FDF4CF64
:103B00008091E8008B778093E8000E94FA18882360
:103B100099F391E001C090E08091E8008B77809369
:103B2000E800992309F4C3CD1981111115C08091C2
:103B3000BF02882361F11092BF0281E08093BE0230
:103B400022961FAE229723961FAE23978EEF2496C0
:103B50008FAF249763E070C01130C9F422961FAE76
:103B6000229723961FAF23978CE0E0E2F1E0D70184
:103B700001900D928A95E1F78EEF60968FAF609776
:103B80006FE0CE018F5B9F4F0E94652690CD8091A4
:103B9000BE028823A1F1123019F0133091F047C012
:103BA0006091B9027091BA028091BB029091BC02FF
:103BB0000E942C2922961FAE229723961FAF23978F
:103BC00015C08A81813039F040F0823081F581E082
:103BD0008093BD0202C01092BD0222961FAE2297B2
:103BE00083E023968FAF23978091BD0224968FAFF9
:103BF00024978EEF25968FAF259764E01DC08FEF39
:103C000017C080E189BD82E189BD09B400FEFDCF06
:103C10008091D8008F7D8093D8008091E0008260F1
:103C20008093E0008091E00081FDFCCF40CD81E0F9
:103C300022968FAF229761E0CE018F5B9F4F0E944B
:103C4000652635CD9F3F09F0C7CED8CE0E940A2AFF
:103C5000292F2F70E92FE295EF704E2F50E0FA01D7
:103C60003297EE30F105B8F4E257FF4F0C94012C77
:103C7000803F99F018F4883E70F40FC0843F59F4E7
:103C80000CC0883E50F0813F31F407C0822F8695EA
:103C900086958695089580E0089581E008951092B4
:103CA000A6031092A5030E948229E0EAF2E086E0D2
:103CB000DF011D928A95E9F71092A6021092B103D6
:103CC0000E940B2880E090E00E94B02480E090E009
:103CD0000C949A24CF92DF92EF92FF92CF93DF93CE
:103CE00000D000D0CDB7DEB70E948E106B017C01F2
:103CF0008091BD02882319F08091BE0202C080E04D
:103D000090E080FF0FC0198282E08A83C701B6016C
:103D10000E942C298B838EEF8C8364E0CE01019668
:103D20000E946526C092B902D092BA02E092BB020C
:103D3000F092BC020E944F1E0F900F900F900F90B8
:103D4000DF91CF91FF90EF90DF90CF900895609337
:103D5000A9037093AA038093AB039093AC030C94D4
:103D60004F1E8091F9029091C802891719F08F5F58
:103D70008770FBCF0895CF938091C70282958F7093
:103D800009F05FC08091C402882309F45AC0809171
:103D9000F902B091C8027091C202A091C302409191
:103DA000C5025091C60291E07F3F09F090E0692F73
:103DB000C6E08B1709F445C04115510521F0AF3F0E
:103DC00021F020E003C021E001C0262F90E020FD7B
:103DD00035C0C89FF001C99FF00D1124E753FD4F76
:103DE00021812A132BC02081271328C02281211171
:103DF00025C0238134812417350710F4215031095F
:103E0000241B350B283C3105C8F42091C7022F70C4
:103E100020612093C70226E0289FF001299FF00D22
:103E20001124E253FD4F80818F708061808382EC8A
:103E300092E00E947104CF910C94B11E019687709C
:103E4000B8CFCF910895AF92BF92CF92DF92EF9209
:103E5000FF920F931F93CF93DF93CDB7DEB7619798
:103E60000FB6F894DEBF0FBECDBF8C0185E0F80120
:103E7000DE011D9601900D928A95E1F7D8013C91E3
:103E800011962C9111971296EC905091C20260916C
:103E9000C3028091C5029091C602009731F06F3F36
:103EA00031F441E05F3F19F403C041E001C040E05C
:103EB000B42FB170BB2E40FD43C1F801C380D48044
:103EC000A090C402AA2009F4E2C04091C702C8161B
:103ED000D90628F0D601A81BB90BCD0104C08095E6
:103EE00090958C0D9D1DFF24F394883C910548F01E
:103EF000F12C407F09F090C082EC92E00E947104A6
:103F000017C1842F807F09F052C0621312C053136F
:103F100010C0FE2CE1100DC04F7040614093C702ED
:103F200082EC92E00E9471048091C702F8018583BF
:103F300054C1CD2831F02F3F31F481E03F3F19F4D7
:103F400003C081E001C080E080FD03C081E08E25D8
:103F500002C080E090E0F82FF170FF2E80FF1CC0BF
:103F60008091F9024091C80256E0841709F412C109
:103F700090E0589FF001599FF00D1124E753FD4F39
:103F80006181261306C06081361303C06281E61288
:103F900003C001968770E9CFFE2CEE2009F41DC105
:103FA0008091C70281608093C702F12C16C1621311
:103FB00008C0531306C0E11004C08091C702F80185
:103FC00099C03D872E878D859E850E94261E882359
:103FD00069F1EE2059F12091C702822F82958F70EE
:103FE00090E0029774F08091C2029091C30298878A
:103FF0008F831986DB86CA862C87CE0107960E949E
:10400000710486E0F801A2ECB2E001900D928A956D
:10401000E1F70E94BB1E0DC0621771F03D872E872D
:104020008D859E850E94261E81111AC0C8010E949E
:104030007104FF24F394D1C05313F0CFE110EECFFD
:104040008091C702F8018583C8010E94710486E04F
:10405000E2ECF2E0DF011D928A95E9F7FA2CBDC08F
:10406000EE2021F32091C702822F82958F7090E07D
:1040700002973CF28091C2029091C3029A83898395
:104080001B82DD82CC822E83CE010196B8CFC8166A
:10409000D90638F0C81AD90AB8ECCB16D10450F0BA
:1040A00007C0809590958C0D9D1D883C910510F062
:1040B000F12C3EC0FE2CEE2009F4B8CF621327C0CD
:1040C000531325C02091C70220FD18C0822F82956E
:1040D0008F70482F50E04115510581F0F80125837C
:1040E0004F30510541F08F5F982F9295907F822F2E
:1040F0008F70892B8583C8010E94710486E0F801C6
:10410000A2ECB2E001900D928A95E1F766C03D877E
:104110002E878D859E850E94261E811172CF8091EB
:10412000C70281608093C702C8010E94710455C014
:10413000E2ECF2E086E0DF011D928A95E9F74DC0DE
:10414000EE2009F473CF3D872E878D859E850E94D2
:10415000261EF82E882309F469CF86E0F801A2EC28
:10416000B2E001900D928A95E1F78091C2029091A0
:10417000C3020E940A2A92959F70963041F4809162
:10418000C10291E089278093C1029093C0020E94EE
:10419000BB1E23C03D872E878D859E850E940A2ADF
:1041A000292F22952F70223028F49F7039F0811129
:1041B00005C00BC0243028F49F7049F4805E88301D
:1041C00020F0C8010E947104BF2CFB2C06C0D8014E
:1041D00015969C91907F91F7F8CF8F2D61960FB631
:1041E000F894DEBF0FBECDBFDF91CF911F910F912D
:1041F000FF90EF90DF90CF90BF90AF900895109216
:10420000A70380910601882331F08091840287FF03
:1042100002C08EE101C086E0EFE4F3E0DF011D9211
:104220008A95E9F70C944F1E882341F08095909170
:10423000A60389238093A6030C94822908958823DA
:1042400039F09091A603892B8093A6030C948229C0
:104250000895882341F080959091A7038923809346
:10426000A7030C9482290895882339F09091A7031D
:10427000892B8093A7030C9482290895882309F43D
:1042800063C0823869F40E94C62481FF5DC069E37F
:104290008DE493E00E9472280E94822969E30EC097
:1042A000833891F40E94C62480FF4EC063E58DE4FC
:1042B00093E00E9472280E94822963E58DE493E0D6
:1042C0000E944A280C948229843869F40E94C624EA
:1042D00082FF3AC067E48DE493E00E9472280E9456
:1042E000822967E4EBCF9CEF980F913A10F4682F86
:1042F000E5CF90E2980F983088F4877021E030E0A5
:10430000A90102C0440F551F8A95E2F7CA018095A2
:104310009091A70389238093A703D4CF9BE5980F9F
:10432000933020F480E090E00C94B02498E5980F4E
:10433000973120F480E090E00C949A24803F20F0A4
:104340000E947D260C940B280895882309F489C0C7
:104350008238B1F40E94C62481FD83C069E38DE4F4
:1043600093E00E9472280E9482292FEF41EE54E0D0
:10437000215040405040E1F700C0000069E317C001
:104380008338D9F40E94C62480FD6BC063E58DE4B8
:1043900093E00E9472280E9482298FEF91EE24E020
:1043A000815090402040E1F700C0000063E58DE4BB
:1043B00093E00E944A280C9482298438B1F40E9428
:1043C000C62482FD4EC067E48DE493E00E9472280B
:1043D0000E9482294FEF51EE84E0415050408040CE
:1043E000E1F700C0000067E4E2CF9CEF980F913A3C
:1043F00030F4682F8DE493E00E947228DCCF90E2C5
:10440000980F983080F4877021E030E0A90102C055
:10441000440F551F8A95E2F7CA019091A703892B93
:104420008093A703C8CFEBE5E80FE33038F4F0E062
:10443000E45DFE4F808190E00C94B024E8E5E80F45
:10444000E73148F4F0E0EE0FFF1FE15DFE4F8081A1
:1044500091810C949A24803F20F00E9447270C946D
:104460000B280895CF93C82F0E94A521C93349F482
:104470002FEF87EE93E0215080409040E1F700C09D
:1044800000008C2FCF910C943E210895EF92FF9263
:104490001F93CF93DF93EC018DEFE82E82E0F82E8F
:1044A00010E08C81970140913A0260913902810FAE
:1044B0000E948D0D1F5E84E0E80EF11C1F3F89F7FE
:1044C0000E94A7119A818C8190FF02C08F5F01C06A
:1044D00081508C83DF91CF911F91FF90EF900895D1
:1044E000EF92FF920F931F93CF93DF938C01CDEF49
:1044F000D2E0E12CF12CF8018481F7E0EF16F10411
:104500001CF4882339F002C0811104C09E0140913F
:104510003A0202C09E0140E0609139028091380267
:104520000E948D0D8FEFE81AF80A24969FE0E91695
:10453000F10409F70E94A711F801848190E0019627
:10454000817099278483DF91CF911F910F91FF9004
:10455000EF900895EF92FF920F931F93CF93DF9305
:10456000EC018C819D810196817099279D838C83BC
:104570008DEFE82E82E0F82E10E005E5212F26953C
:104580008C819D81820F911D8170970140913A022B
:1045900060913902809F802D11240E948D0D1F5F34
:1045A00084E0E80EF11C1F3049F7DF91CF911F9195
:1045B0000F91FF90EF900C94A7110F931F93CF933F
:1045C000DF93CDEFD2E0FE011182108212821382BE
:1045D000349683E0E933F807B9F700E010E0809102
:1045E000FB02082E000C990B0817190794F0809114
:1045F0001F01082E000C990B8017910754F09E01A3
:1046000040913A0260913902809138020E948D0DEA
:1046100004C0198218821A821B820F5F1F4F2496D2
:104620000F301105E1F60E94A71180911E019091B3
:10463000FB02980F9093FB0220911F01280F2093FB
:104640001F01121614F49E301CF0819580931E01F8
:10465000DF91CF911F910F910895BF92CF92DF927A
:10466000EF92FF920F931F93CF93DF93FC01828110
:1046700080FF03C0DD24DA9402C0DD24D3940DEF63
:1046800012E0C0E0D0E02FE0B22EF80111821082DB
:104690001282138294E0E92EF12CC12C8091FA024F
:1046A0008C0D80312CF06B2D0E94CB2B892F02C0FA
:1046B00087FD815F082E000C990BC817D90791F46C
:1046C00080913A028E9DA0018F9D500D1124559529
:1046D0004795559547959801609139028091380228
:1046E0000E948D0DCD0CF1E0EF1AF108B9F621967C
:1046F0000C5F1F4FCF30D10541F60E94A71180916A
:10470000FA0291E0D91206C0811102C08EE007C002
:10471000815005C090E00196BE010E94ED2B809370
:10472000FA02DF91CF911F910F91FF90EF90DF90F0
:10473000CF90BF900895CF93DF93EC01E7E3F2E0D1
:10474000438162818C810E94220E8C818F5F8C83D9
:10475000DF91CF910895CF93DF93EC01EC81F0E0EE
:10476000EC55F84F4491E7E3F2E0628181810E94C9
:10477000220E8C818F5F8C83DF91CF9108950F93F0
:104780001F93CF93DF93CDB7DEB767970FB6F8943B
:10479000DEBF0FBECDBF4B8B5C8B6D8B7E8B8F8B4B
:1047A0000E891F890115110531F05F3F31F481E059
:1047B0004F3F19F403C081E001C080E080FD32C0AA
:1047C000242F30E0A1E0B0E0042E01C0AA0F0A942B
:1047D000EAF7852F90E0662319F07091C10205C0B9
:1047E000FC01E15CFC4F70817A237723A1F046E065
:1047F000489FF001499FF00D1124E20FF31FEE0FC7
:10480000FF1FEE57FE4F40815181FC01E15CFC4FE0
:104810009081A92B06C0FC01E15CFC4FA095808132
:10482000A823A08386E0FE013D96DF01982F1D920C
:104830009A95E9F74D875E876F87198B088BDE01A4
:10484000179601900D928A95E1F7CE0107960E9486
:10485000231F81113EC086E0FE013796DE011196CE
:1048600001900D928A95E1F7FF81E8856A857B8545
:104870006115710531F0EF3F31F481E0FF3F19F42C
:1048800003C081E001C080E080FD23C02091C80208
:1048900030E0C9010196877099274091F90250E0F4
:1048A0008417950779F1F983EA837D836C8396E019
:1048B000929FD001939FB00D1124A753BD4FFE01CD
:1048C000319601900D929A95E1F78093C8020E946B
:1048D000B11E16E08091F9029091C8028917F9F093
:1048E000189FC001112487539D4F0E94231F8823C6
:1048F000B1F08091F90290E001968770992780933A
:10490000F902E8CF0E94FF201092C8021092F9022B
:10491000E2ECF2E086E0DF011D928A95E9F7679606
:104920000FB6F894DEBF0FBECDBFDF91CF911F91C0
:104930000F91089520913D0330913E0328173907C8
:1049400071F090933E0380933D03E0918702F091D4
:104950008802309721F00084F185E02D09940895B4
:1049600020913B0330913C032817390771F0909355
:104970003C0380933B03E0918702F09188023097DB
:1049800021F00680F781E02D09940895E0918702D7
:10499000F0918802309721F00190F081E02D099488
:1049A00080E008959091370290FF04C09695981783
:1049B00040F003C0811105C090E0961710F40C94EC
:1049C000740D0C94600D882311F0FA0101C0FB01F5
:1049D00009949091370290FF0DC0EDEFF2E08183D2
:1049E000608342831382349693E0E933F907B9F781
:1049F0000C94A71108950F931F93CF93DF9300D0CA
:104A000000D0CDB7DEB78C018091FC0281110AC0C5
:104A10009E012F5F3F4F4FEF6FEF0E948D0D8A81F8
:104A20008093FC02F8018481813051F028F08230BB
:104A300061F44091FC020AC08091FC0240E007C092
:104A40006091FC0240E080E003C040E080E060E074
:104A50000E94E924F801848190E0019663E070E00F
:104A60000E94ED2B84830F900F900F900F90DF9199
:104A7000CF911F910F9108955F926F927F928F92C5
:104A80009F92AF92BF92CF92DF92EF92FF920F93DD
:104A90001F93CF93DF9300D000D0CDB7DEB7182F90
:104AA000762E042F622E9091370290FF6DC0E92F71
:104AB000E695AE2FB0E0A35ABE4F8C9180939E0234
:104AC0009E7F923061F49E012F5F3F4F812F0E94A5
:104AD0008D0D4B8169818A810E94E92443C0823017
:104AE00019F400913A023EC0863019F41091380250
:104AF00039C08930D9F38931A9F5E9518E2F8170F8
:104B0000582EE695F0E0E156F84FA590B4908DEF61
:104B1000C82E82E0D82EE12CF12CBB249FE0892EF8
:104B2000912CAE9CC001AF9C900DBE9C900D1124A9
:104B3000B4010E94D92B812F511002C0860F01C0F1
:104B4000861B9601402F672D0E948D0D8FEFE81A6E
:104B5000F80A84E0C80ED11C8FE0E816F10409F7CA
:104B60000E94A711109338027092390200933A0202
:104B7000662051F0609137027091380280913902BD
:104B800090913A020E94F10C0F900F900F900F90AD
:104B9000DF91CF911F910F91FF90EF90DF90CF9019
:104BA000BF90AF909F908F907F906F905F9008958F
:104BB0000F931F93CF93DF93C62FD42F122FFC0197
:104BC00082818823C9F060932B020E94FF27909373
:104BD0003A038093390380E28C0F883008F057C085
:104BE000C77081E001C0880FCA95EAF7DF91CF91C5
:104BF0001F910F910C94342180912B02681330C0C7
:104C00008091390390913A030E94D527883C910501
:104C100038F500E20D0FCD17B9F080E28C0F883027
:104C200040F4C77081E001C0880FCA95EAF70E947E
:104C30002921083028F581E09D2F977001C0880F49
:104C40009A95EAF70E943421812F0E94322208307F
:104C5000F0F4D77081E001C0880FDA95EAF70AC056
:104C600080E28C0F883098F4C77081E001C0880F13
:104C7000CA95EAF7DF91CF911F910F910C942921EA
:104C8000812FDF91CF911F910F910C943222DF91F0
:104C9000CF911F910F91089560913702669570E052
:104CA0004BE050E083E191E00E94342D892B19F410
:104CB00081E080939F020E94FF2790939902809346
:104CC0009802089580913F02089520916202243055
:104CD00099F423E02093E90070E040E050E00E9466
:104CE0002D19882321F01092BE021092BF028091EC
:104CF000E8008E778093E8000895803F39F4809132
:104D0000A30287FF6CC01092A30269C0813F29F4FF
:104D10008091A3021816BCF362C09091A202823F58
:104D200029F497FF5CC01092A20259C0833F19F486
:104D30001916CCF354C0893F41F48091A40218168F
:104D40000CF04DC01092A4024AC08A3F29F4809111
:104D5000A40287FF44C0F6CF8B3F39F48091A502AF
:104D600087FF3DC01092A5023AC08C3F29F4809184
:104D7000A5021816BCF333C0843F21F48091A10230
:104D80008E7F17C0853F21F48091A1028D7F11C0D5
:104D9000863F21F48091A1028B7F0BC0873F21F4D5
:104DA0008091A102877F05C0883F31F48091A102E4
:104DB0008F7E8093A10213C08D3F21F48091B103B7
:104DC0008E7F0BC08E3F21F48091B1038D7F05C093
:104DD0008F3F29F48091B1038B7F8093B103809141
:104DE000A20281110EC08091A30281110AC080919C
:104DF000A402811106C08091A502811102C0109207
:104E0000A60208958091B10380FD16C081FD16C0F1
:104E100082FD18C08091A602882391F0883290F418
:104E200028E0829FC001112468E270E00E94ED2B0F
:104E3000862F672B29F007C082E0089584E008954B
:104E400081E0089588E008958091B10380FD17C046
:104E500081FD17C082FD19C08091A602882399F0B8
:104E60008C3398F423E2829FC00111246CE370E03C
:104E70000E94ED2B862F672B49F481E0089588E08E
:104E8000089581E1089585E0089583E20895803FC3
:104E900021F40E942427819504C0813F29F40E94B7
:104EA00024278093A3020895823F21F40E9424279F
:104EB000819504C0833F29F40E9424278093A20295
:104EC0000895893F19F40E94022705C08A3F31F4F2
:104ED0000E94022781958093A40208958B3F21F4BC
:104EE0000E940227819504C08C3F29F40E9402276A
:104EF0008093A5020895843F21F48091A1028160EE
:104F000017C0853F21F48091A102826011C0863FC5
:104F100021F48091A10284600BC0873F21F480912D
:104F2000A102886005C0883F31F48091A1028061B0
:104F30008093A10208958D3F21F48091B103816097
:104F40000BC08E3F21F48091B103826005C08F3F7A
:104F500029F48091B10384608093B103089578941B
:104F60001F920F920FB60F9211248F939F93AF93BE
:104F7000BF938091AD039091AE03A091AF03B09128
:104F8000B0030196A11DB11D8093AD039093AE03B4
:104F9000A093AF03B093B003BF91AF919F918F9156
:104FA0000F900FBE0F901F901895CF92DF92EF9247
:104FB000FF920F931F932FB7F8944091AD03509138
:104FC000AE036091AF037091B0032FBF6A017B0104
:104FD000EE24FF248C0120E030E0C016D106E2066A
:104FE000F30610F4415051099A01281B390BC901ED
:104FF0001F910F91FF90EF90DF90CF9008952FB702
:10500000F8948091AD039091AE03A091AF03B0915D
:10501000B0032FBF0895E0918702F0918802309786
:1050200049F082E08093A0020480F581E02D80EABF
:1050300092E009950E94FF279093A8028093A7020F
:1050400008951F920F920FB60F9211248F939F9382
:10505000AF93BF9380918902811113C08091AD03FA
:105060009091AE03A091AF03B091B0034196A11D02
:10507000B11D8093AD039093AE03A093AF03B093A3
:10508000B003BF91AF919F918F910F900FBE0F9082
:105090001F901895209106012223C9F020918402C7
:1050A00027FF15C0262F2695269526952E31C8F464
:1050B000FC01E20FF11D677081E090E001C0880FF4
:1050C0006A95EAF780959281892382830895FC018D
:1050D00006962281621301C012823196E817F90701
:1050E000C1F70895209106012223C1F02091840286
:1050F00027FF14C0262F2695269526952E3130F5AC
:10510000FC01E20FF11D677081E090E001C0880FA3
:105110006A95EAF79281892B82830895FC01329681
:105120002FEF30E04191641789F02F3F19F44111BE
:1051300001C0232F3F5F3630A9F72F3F39F0FC0124
:10514000E20FF11D27FDFA95628308950895CF932C
:1051500084E090E00E94832BC82F81E290E00E94BF
:10516000832B2C2F30E0A901582BCA01CF91089531
:105170006FEE7EEF80E090E00E94B52B60E082E071
:1051800090E00E94972B60E083E090E00E94972BD4
:105190001092A9031092AA031092AB031092AC03D1
:1051A00060E084E090E00E94972B60E081E290E074
:1051B0000E94972B60E085E090E00E94972B60E0D2
:1051C00086E090E00E94972B6FEF87E090E00E94CE
:1051D000972B40E050E0BA0188E090E00E94A92BB4
:1051E00060E08DE090E00E94972B40E050E0BA0133
:1051F00088E190E00E94A92B60E087E190E00E94A6
:10520000972B40E050E0BA018CE190E00E94A92B7E
:1052100060E080E290E00E94972B10927202109260
:105220007302109274021092750284E08061809380
:1052300072024091720250917302609174027091F7
:1052400075028FE090E00E94A92B40E050E0BA0187
:1052500083E190E00C94A92BCF92DF92EF92FF9222
:105260006C01EE24FF24C114D104E104F10421F007
:10527000C701B60120E101C020E0C72ED82EE92EDB
:10528000FF24C114D104E104F10419F0285FC7011F
:10529000B6016B017C0154E0F694E794D794C7946F
:1052A0005A95D1F7C114D104E104F10419F02C5F2F
:1052B000C701B6016B017C0142E0F694E794D794F4
:1052C000C7944A95D1F7C114D104E104F10419F04F
:1052D0002E5FC701B601DC01CB01B695A795979566
:1052E0008795892B8A2B8B2B09F02F5F822FFF90BC
:1052F000EF90DF90CF9008958091A80381111092D4
:10530000A80308959091A7038091A603892B20916B
:10531000A503982F922B90934D038091A803882387
:10532000D9F0892B80934D0380910601882331F0B9
:105330008091840287FF02C08EE101C086E0EFE425
:10534000F3E090E0815028F021912223D9F39F5F70
:10535000F9CF91110E947C29E0918702F091880297
:105360003097A9F080910601882359F0809184023A
:1053700087FF07C080914D0380934E0385E08093A3
:105380004D030280F381E02D8DE493E009940895AC
:10539000BF92CF92DF92EF92FF920F931F93CF9322
:1053A000DF938C01C090B902D090BA02E090BB02AA
:1053B000F090BC028091A9039091AA03A091AB0345
:1053C000B091AC03C82AD92AEA2AFB2ACFE1D0E05F
:1053D000D701C6010C2E04C0B695A7959795879561
:1053E0000A94D2F780FD04C0219790F7B12C07C032
:1053F000BC2EB8018C2F0E94430E0197A9F38B2D70
:10540000DF91CF911F910F91FF90EF90DF90CF90A0
:10541000BF900895CF93DF93EC010E94C829BE018D
:105420000E94430EDF91CF910895292F220F920FF2
:10543000990F890F682F669566956695982F9770D6
:1054400085E0689FB001112440E050E080E0FB015E
:10545000E40FF51FE359FC4F208130E0092E02C014
:10546000369527950A94E2F721703327042E01C060
:10547000220F0A94EAF7822B4F5F5F4F45305105A8
:1054800031F70895292F220F920F990F890FE82FD6
:10549000E695E695E695877051E001C0550F8A952F
:1054A000EAF785E0E89FF0011124E359FC4F20E082
:1054B00030E070E04081CB01022E02C096958795C6
:1054C0000A94E2F78170819584278523842781934C
:1054D0002F5F3F4F2530310569F708950F931F93D4
:1054E00041E050E060E070E004C0440F551F661FCB
:1054F000771F8A95D2F74095509560957095809169
:10550000B9029091BA02A091BB02B091BC028A018B
:105510009B01082319232A233B23C901B8011F91AA
:105520000F910C946A1E2091A4038095822380938E
:10553000A403982F977079F430E0482F082E000CC0
:10554000550B2417350739F08595859585950E946B
:105550006E2A1092A40308950F931F9341E050E028
:1055600060E070E004C0440F551F661F771F8A95E6
:10557000D2F78091B9029091BA02A091BB02B0918A
:10558000BC028A019B01082B192B2A2B3B2BC9013A
:10559000B8011F910F910C946A1E1092B9008CE013
:1055A0008093B8000895EF92FF920F931F93CF93CB
:1055B000DF93182FEB011092BC0084EA8093BC00AB
:1055C0000E94FF277C018091BC0087FD0EC0CF3F69
:1055D0008FEFD807C1F30E94FF278E199F098C1700
:1055E0009D0788F38EEF9FEF2EC08091B900887FD2
:1055F000883041F08091B900887F803119F08FEFB9
:105600009FEF21C01093BB0084E88093BC000E94F0
:10561000FF278C018091BC0087FD0CC0CF3F8FEF2E
:10562000D807C1F30E94FF27801B910B8C179D07A1
:1056300088F3D8CF8091B900887F883111F0803409
:10564000F1F680E090E0DF91CF911F910F91FF90F4
:10565000EF9008950F931F93CF93DF93EB01809307
:10566000BB0084E88093BC000E94FF278C018091DE
:10567000BC0087FD0EC0CF3F8FEFD807C1F30E945B
:10568000FF27801B910B8C179D0788F38EEF9FEFF0
:105690000CC02091B900287F81E090E0283211F4FD
:1056A00080E090E0919581959109DF91CF911F91D4
:1056B0000F9108950F931F93CF93DF93EC0184E82C
:1056C0008093BC000E94FF278C018091BC0087FD65
:1056D0000EC0CF3F8FEFD807C1F30E94FF27801B7A
:1056E000910B8C179D0788F38EEF9FEF03C080917D
:1056F000BB0090E0DF91CF911F910F91089584E955
:105700008093BC000895F999FECF92BD81BDF89AAF
:10571000992780B50895A6E1B0E044E050E00C94EC
:10572000BD2BA8E1B0E042E050E00C94BD2B262F49
:10573000F999FECF92BD81BDF89A019700B4021687
:1057400039F01FBA20BD0FB6F894FA9AF99A0FBE35
:1057500008950396272F0E94982B0E94972B252FA0
:105760000E94982B242F0C94982B0196272F0E948F
:10577000982B0C94972BDC01CB01FC01F999FECFFF
:1057800006C0F2BDE1BDF89A319600B40D924150C9
:105790005040B8F7089587FB082E062687FD8195AF
:1057A00067FD61950E94072C0EF4919507FC819589
:1057B0000895AA1BBB1B51E107C0AA1FBB1FA61758
:1057C000B70710F0A61BB70B881F991F5A95A9F7AA
:1057D00080959095BC01CD01089597FB072E16F496
:1057E000009407D077FD09D00E94D92B07FC05D083
:1057F0003EF4909581959F4F0895709561957F4FE8
:105800000895EE0FFF1F0590F491E02D0994991B68
:1058100079E004C0991F961708F0961B881F7A95A7
:10582000C9F7809508950F931F93CF93DF9382302C
:10583000910510F482E090E0E091B403F091B5039B
:1058400020E030E0A0E0B0E0309719F140815181D4
:105850000281138148175907C8F08417950769F426
:10586000109731F012960C93129713961C9327C041
:105870000093B4031093B50322C02115310519F02C
:105880004217530718F49A01BD01EF01DF01F80137
:10589000DBCF21153105F9F0281B390B24303105F8
:1058A00080F48A819B816115710521F0FB0193834E
:1058B000828304C09093B5038093B403FE013296B3
:1058C00044C0FE01E20FF31F8193919322503109EE
:1058D000398328833AC02091B2033091B303232B3C
:1058E00041F420910201309103013093B3032093DE
:1058F000B20320910001309101012115310541F4DD
:105900002DB73EB74091040150910501241B350B82
:10591000E091B203F091B303E217F307A0F42E1B5A
:105920003F0B2817390778F0AC014E5F5F4F241703
:10593000350748F04E0F5F1F5093B3034093B203F7
:105940008193919302C0E0E0F0E0CF01DF91CF912D
:105950001F910F910895CF93DF93009709F481C0B1
:10596000FC01329713821282A091B403B091B50367
:10597000109781F420813181820F931F2091B2030F
:105980003091B3032817390751F5F093B303E0932F
:10599000B20367C0ED0120E030E0CE17DF0740F42E
:1059A0004A815B819E0141155105F1F0EA01F5CF75
:1059B000D383C28340815181840F951FC817D907B3
:1059C00059F488819981840F951F02969183808371
:1059D0008A819B81938382832115310529F4F09379
:1059E000B503E093B4033DC0E901FB83EA83499129
:1059F0005991C40FD51FEC17FD0761F48081918187
:105A0000840F951F0296E90199838883828193818F
:105A10009B838A83E0E0F0E012968D919C9113972E
:105A2000009719F0FD01DC01F7CF8D919C91119742
:105A30009D012E5F3F4F820F931F2091B203309143
:105A4000B3032817390769F4309729F41092B50386
:105A50001092B40302C013821282B093B303A093D6
:105A6000B203DF91CF910895FC014150504030F0D6
:105A700001900616D1F73197CF010895882799270D
:065A80000895F894FFCF29
:105A86000000B60320000120006226D719AC19A633
:105A960019941901191A1B1C1D1E1F20212201020F
:105AA6005945776E762F41624F373000818283E207
:105AB60000E900EA00B500B600B700CD008301CCCE
:105AC600008A019201940121022302240225022662
:105AD6000227022A02B300B4006F00700000010220
